{
  "abi": [
    {
      "inputs": [
        {
          "internalType": "address",
          "name": "initialOwner",
          "type": "address"
        }
      ],
      "stateMutability": "nonpayable",
      "type": "constructor"
    },
    {
      "anonymous": false,
      "inputs": [
        {
          "indexed": true,
          "internalType": "address",
          "name": "customerAddress",
          "type": "address"
        },
        {
          "indexed": true,
          "internalType": "address",
          "name": "courierAddress",
          "type": "address"
        },
        {
          "indexed": false,
          "internalType": "bytes32",
          "name": "offerHash",
          "type": "bytes32"
        }
      ],
      "name": "CollateralClaimed",
      "type": "event"
    },
    {
      "anonymous": false,
      "inputs": [
        {
          "indexed": true,
          "internalType": "address",
          "name": "customerAddress",
          "type": "address"
        },
        {
          "indexed": true,
          "internalType": "address",
          "name": "addresseeAddress",
          "type": "address"
        },
        {
          "indexed": true,
          "internalType": "address",
          "name": "courierAddress",
          "type": "address"
        },
        {
          "indexed": false,
          "internalType": "bytes32",
          "name": "offerHash",
          "type": "bytes32"
        }
      ],
      "name": "DeliveryFailed",
      "type": "event"
    },
    {
      "anonymous": false,
      "inputs": [
        {
          "indexed": true,
          "internalType": "address",
          "name": "customerAddress",
          "type": "address"
        },
        {
          "indexed": true,
          "internalType": "address",
          "name": "addresseeAddress",
          "type": "address"
        },
        {
          "indexed": true,
          "internalType": "address",
          "name": "courierAddress",
          "type": "address"
        },
        {
          "indexed": false,
          "internalType": "bytes32",
          "name": "offerHash",
          "type": "bytes32"
        }
      ],
      "name": "DeliveryOfferAccepted",
      "type": "event"
    },
    {
      "anonymous": false,
      "inputs": [
        {
          "indexed": true,
          "internalType": "address",
          "name": "customerAddress",
          "type": "address"
        },
        {
          "indexed": true,
          "internalType": "address",
          "name": "addresseeAddress",
          "type": "address"
        },
        {
          "indexed": false,
          "internalType": "bytes32",
          "name": "offerHash",
          "type": "bytes32"
        }
      ],
      "name": "DeliveryOfferCanceled",
      "type": "event"
    },
    {
      "anonymous": false,
      "inputs": [
        {
          "indexed": true,
          "internalType": "address",
          "name": "customerAddress",
          "type": "address"
        },
        {
          "indexed": true,
          "internalType": "address",
          "name": "addresseeAddress",
          "type": "address"
        },
        {
          "indexed": false,
          "internalType": "bytes32",
          "name": "offerHash",
          "type": "bytes32"
        }
      ],
      "name": "DeliveryOfferCreated",
      "type": "event"
    },
    {
      "anonymous": false,
      "inputs": [
        {
          "indexed": true,
          "internalType": "address",
          "name": "customerAddress",
          "type": "address"
        },
        {
          "indexed": true,
          "internalType": "address",
          "name": "addresseeAddress",
          "type": "address"
        },
        {
          "indexed": true,
          "internalType": "address",
          "name": "courierAddress",
          "type": "address"
        },
        {
          "indexed": false,
          "internalType": "bytes32",
          "name": "offerHash",
          "type": "bytes32"
        }
      ],
      "name": "DeliveryRefused",
      "type": "event"
    },
    {
      "anonymous": false,
      "inputs": [
        {
          "indexed": true,
          "internalType": "uint256",
          "name": "time",
          "type": "uint256"
        }
      ],
      "name": "MinDeliveryTimeSet",
      "type": "event"
    },
    {
      "anonymous": false,
      "inputs": [
        {
          "indexed": true,
          "internalType": "address",
          "name": "previousOwner",
          "type": "address"
        },
        {
          "indexed": true,
          "internalType": "address",
          "name": "newOwner",
          "type": "address"
        }
      ],
      "name": "OwnershipTransferred",
      "type": "event"
    },
    {
      "anonymous": false,
      "inputs": [
        {
          "indexed": true,
          "internalType": "address",
          "name": "addresseeAddress",
          "type": "address"
        },
        {
          "indexed": true,
          "internalType": "address",
          "name": "courierAddress",
          "type": "address"
        },
        {
          "indexed": true,
          "internalType": "bytes32",
          "name": "offerHash",
          "type": "bytes32"
        }
      ],
      "name": "PackageDelivered",
      "type": "event"
    },
    {
      "anonymous": false,
      "inputs": [
        {
          "indexed": true,
          "internalType": "address",
          "name": "customerAddress",
          "type": "address"
        },
        {
          "indexed": true,
          "internalType": "address",
          "name": "addresseeAddress",
          "type": "address"
        },
        {
          "indexed": true,
          "internalType": "address",
          "name": "courierAddress",
          "type": "address"
        },
        {
          "indexed": false,
          "internalType": "bytes32",
          "name": "offerHash",
          "type": "bytes32"
        }
      ],
      "name": "PackagePickedUp",
      "type": "event"
    },
    {
      "anonymous": false,
      "inputs": [
        {
          "indexed": true,
          "internalType": "address",
          "name": "customerAddress",
          "type": "address"
        },
        {
          "indexed": true,
          "internalType": "address",
          "name": "courierAddress",
          "type": "address"
        },
        {
          "indexed": true,
          "internalType": "bytes32",
          "name": "offerHash",
          "type": "bytes32"
        }
      ],
      "name": "PackageReturned",
      "type": "event"
    },
    {
      "anonymous": false,
      "inputs": [
        {
          "indexed": true,
          "internalType": "address",
          "name": "tokenAddress",
          "type": "address"
        }
      ],
      "name": "TokenSupportStopped",
      "type": "event"
    },
    {
      "anonymous": false,
      "inputs": [
        {
          "indexed": true,
          "internalType": "address",
          "name": "tokenAddress",
          "type": "address"
        }
      ],
      "name": "TokenSupported",
      "type": "event"
    },
    {
      "inputs": [
        {
          "internalType": "bytes32",
          "name": "offerHash",
          "type": "bytes32"
        }
      ],
      "name": "acceptDeliveryOffer",
      "outputs": [],
      "stateMutability": "nonpayable",
      "type": "function"
    },
    {
      "inputs": [
        {
          "internalType": "bytes32",
          "name": "offerHash",
          "type": "bytes32"
        }
      ],
      "name": "cancelDeliveryOffer",
      "outputs": [],
      "stateMutability": "nonpayable",
      "type": "function"
    },
    {
      "inputs": [
        {
          "internalType": "bytes32",
          "name": "offerHash",
          "type": "bytes32"
        }
      ],
      "name": "claimCollateral",
      "outputs": [],
      "stateMutability": "nonpayable",
      "type": "function"
    },
    {
      "inputs": [
        {
          "internalType": "bytes32",
          "name": "offerHash",
          "type": "bytes32"
        }
      ],
      "name": "confirmDelivery",
      "outputs": [],
      "stateMutability": "nonpayable",
      "type": "function"
    },
    {
      "inputs": [
        {
          "internalType": "bytes32",
          "name": "offerHash",
          "type": "bytes32"
        }
      ],
      "name": "confirmPickUp",
      "outputs": [],
      "stateMutability": "nonpayable",
      "type": "function"
    },
    {
      "inputs": [
        {
          "components": [
            {
              "internalType": "uint256",
              "name": "nonce",
              "type": "uint256"
            },
            {
              "internalType": "address",
              "name": "customerAddress",
              "type": "address"
            },
            {
              "internalType": "address",
              "name": "addresseeAddress",
              "type": "address"
            },
            {
              "internalType": "bytes32",
              "name": "pickupAddress",
              "type": "bytes32"
            },
            {
              "internalType": "bytes32",
              "name": "deliveryAddress",
              "type": "bytes32"
            },
            {
              "internalType": "uint256",
              "name": "deliveryTime",
              "type": "uint256"
            },
            {
              "internalType": "address",
              "name": "tokenAddress",
              "type": "address"
            },
            {
              "internalType": "uint256",
              "name": "reward",
              "type": "uint256"
            },
            {
              "internalType": "uint256",
              "name": "collateral",
              "type": "uint256"
            }
          ],
          "internalType": "struct OfferModel.Offer",
          "name": "offer",
          "type": "tuple"
        }
      ],
      "name": "createDeliveryOffer",
      "outputs": [],
      "stateMutability": "nonpayable",
      "type": "function"
    },
    {
      "inputs": [
        {
          "internalType": "address",
          "name": "customer",
          "type": "address"
        }
      ],
      "name": "customerNonce",
      "outputs": [
        {
          "internalType": "uint256",
          "name": "",
          "type": "uint256"
        }
      ],
      "stateMutability": "view",
      "type": "function"
    },
    {
      "inputs": [
        {
          "internalType": "bytes32",
          "name": "offerHash",
          "type": "bytes32"
        }
      ],
      "name": "deliveryDeadline",
      "outputs": [
        {
          "internalType": "uint256",
          "name": "",
          "type": "uint256"
        }
      ],
      "stateMutability": "view",
      "type": "function"
    },
    {
      "inputs": [
        {
          "components": [
            {
              "internalType": "uint256",
              "name": "nonce",
              "type": "uint256"
            },
            {
              "internalType": "address",
              "name": "customerAddress",
              "type": "address"
            },
            {
              "internalType": "address",
              "name": "addresseeAddress",
              "type": "address"
            },
            {
              "internalType": "bytes32",
              "name": "pickupAddress",
              "type": "bytes32"
            },
            {
              "internalType": "bytes32",
              "name": "deliveryAddress",
              "type": "bytes32"
            },
            {
              "internalType": "uint256",
              "name": "deliveryTime",
              "type": "uint256"
            },
            {
              "internalType": "address",
              "name": "tokenAddress",
              "type": "address"
            },
            {
              "internalType": "uint256",
              "name": "reward",
              "type": "uint256"
            },
            {
              "internalType": "uint256",
              "name": "collateral",
              "type": "uint256"
            }
          ],
          "internalType": "struct OfferModel.Offer",
          "name": "offer",
          "type": "tuple"
        }
      ],
      "name": "hashOffer",
      "outputs": [
        {
          "internalType": "bytes32",
          "name": "",
          "type": "bytes32"
        }
      ],
      "stateMutability": "pure",
      "type": "function"
    },
    {
      "inputs": [
        {
          "internalType": "address",
          "name": "initialOwner",
          "type": "address"
        },
        {
          "internalType": "uint256",
          "name": "minDeliveryTime",
          "type": "uint256"
        }
      ],
      "name": "initialize",
      "outputs": [],
      "stateMutability": "nonpayable",
      "type": "function"
    },
    {
      "inputs": [
        {
          "internalType": "address",
          "name": "tokenAddress",
          "type": "address"
        }
      ],
      "name": "isTokenSupported",
      "outputs": [
        {
          "internalType": "bool",
          "name": "",
          "type": "bool"
        }
      ],
      "stateMutability": "view",
      "type": "function"
    },
    {
      "inputs": [],
      "name": "minDeliveryTime",
      "outputs": [
        {
          "internalType": "uint256",
          "name": "",
          "type": "uint256"
        }
      ],
      "stateMutability": "view",
      "type": "function"
    },
    {
      "inputs": [
        {
          "internalType": "bytes32",
          "name": "offerHash",
          "type": "bytes32"
        }
      ],
      "name": "offer",
      "outputs": [
        {
          "components": [
            {
              "internalType": "uint256",
              "name": "nonce",
              "type": "uint256"
            },
            {
              "internalType": "address",
              "name": "customerAddress",
              "type": "address"
            },
            {
              "internalType": "address",
              "name": "addresseeAddress",
              "type": "address"
            },
            {
              "internalType": "bytes32",
              "name": "pickupAddress",
              "type": "bytes32"
            },
            {
              "internalType": "bytes32",
              "name": "deliveryAddress",
              "type": "bytes32"
            },
            {
              "internalType": "uint256",
              "name": "deliveryTime",
              "type": "uint256"
            },
            {
              "internalType": "address",
              "name": "tokenAddress",
              "type": "address"
            },
            {
              "internalType": "uint256",
              "name": "reward",
              "type": "uint256"
            },
            {
              "internalType": "uint256",
              "name": "collateral",
              "type": "uint256"
            }
          ],
          "internalType": "struct OfferModel.Offer",
          "name": "",
          "type": "tuple"
        }
      ],
      "stateMutability": "view",
      "type": "function"
    },
    {
      "inputs": [
        {
          "internalType": "bytes32",
          "name": "offerHash",
          "type": "bytes32"
        }
      ],
      "name": "offerStatus",
      "outputs": [
        {
          "internalType": "enum EnumerableMap.OfferStatus",
          "name": "",
          "type": "uint8"
        }
      ],
      "stateMutability": "view",
      "type": "function"
    },
    {
      "inputs": [],
      "name": "offers",
      "outputs": [
        {
          "components": [
            {
              "internalType": "bytes32",
              "name": "offerHash",
              "type": "bytes32"
            },
            {
              "internalType": "enum EnumerableMap.OfferStatus",
              "name": "offerStatus",
              "type": "uint8"
            }
          ],
          "internalType": "struct EnumerableMap.HashWithOfferStatus[]",
          "name": "",
          "type": "tuple[]"
        }
      ],
      "stateMutability": "view",
      "type": "function"
    },
    {
      "inputs": [
        {
          "internalType": "bytes32",
          "name": "offerHash",
          "type": "bytes32"
        }
      ],
      "name": "order",
      "outputs": [
        {
          "components": [
            {
              "components": [
                {
                  "internalType": "uint256",
                  "name": "nonce",
                  "type": "uint256"
                },
                {
                  "internalType": "address",
                  "name": "customerAddress",
                  "type": "address"
                },
                {
                  "internalType": "address",
                  "name": "addresseeAddress",
                  "type": "address"
                },
                {
                  "internalType": "bytes32",
                  "name": "pickupAddress",
                  "type": "bytes32"
                },
                {
                  "internalType": "bytes32",
                  "name": "deliveryAddress",
                  "type": "bytes32"
                },
                {
                  "internalType": "uint256",
                  "name": "deliveryTime",
                  "type": "uint256"
                },
                {
                  "internalType": "address",
                  "name": "tokenAddress",
                  "type": "address"
                },
                {
                  "internalType": "uint256",
                  "name": "reward",
                  "type": "uint256"
                },
                {
                  "internalType": "uint256",
                  "name": "collateral",
                  "type": "uint256"
                }
              ],
              "internalType": "struct OfferModel.Offer",
              "name": "offer",
              "type": "tuple"
            },
            {
              "internalType": "enum OrderModel.OrderStatus",
              "name": "status",
              "type": "uint8"
            },
            {
              "internalType": "address",
              "name": "courierAddress",
              "type": "address"
            },
            {
              "internalType": "uint256",
              "name": "creationTimestamp",
              "type": "uint256"
            },
            {
              "internalType": "uint256",
              "name": "lastUpdateTimestamp",
              "type": "uint256"
            }
          ],
          "internalType": "struct OrderModel.Order",
          "name": "",
          "type": "tuple"
        }
      ],
      "stateMutability": "view",
      "type": "function"
    },
    {
      "inputs": [],
      "name": "owner",
      "outputs": [
        {
          "internalType": "address",
          "name": "",
          "type": "address"
        }
      ],
      "stateMutability": "view",
      "type": "function"
    },
    {
      "inputs": [
        {
          "internalType": "bytes32",
          "name": "offerHash",
          "type": "bytes32"
        }
      ],
      "name": "refuseDelivery",
      "outputs": [],
      "stateMutability": "nonpayable",
      "type": "function"
    },
    {
      "inputs": [
        {
          "internalType": "uint256",
          "name": "time",
          "type": "uint256"
        }
      ],
      "name": "setMinDeliveryTime",
      "outputs": [],
      "stateMutability": "nonpayable",
      "type": "function"
    },
    {
      "inputs": [
        {
          "internalType": "address",
          "name": "tokenAddress",
          "type": "address"
        }
      ],
      "name": "stopSupportingToken",
      "outputs": [],
      "stateMutability": "nonpayable",
      "type": "function"
    },
    {
      "inputs": [
        {
          "internalType": "address",
          "name": "tokenAddress",
          "type": "address"
        }
      ],
      "name": "supportToken",
      "outputs": [],
      "stateMutability": "nonpayable",
      "type": "function"
    },
    {
      "inputs": [
        {
          "internalType": "address",
          "name": "newOwner",
          "type": "address"
        }
      ],
      "name": "transferOwnership",
      "outputs": [],
      "stateMutability": "nonpayable",
      "type": "function"
    },
    {
      "inputs": [
        {
          "internalType": "address",
          "name": "tokenAddress",
          "type": "address"
        }
      ],
      "name": "wasTokenEverSupported",
      "outputs": [
        {
          "internalType": "bool",
          "name": "",
          "type": "bool"
        }
      ],
      "stateMutability": "view",
      "type": "function"
    }
  ],
  "evm": {
    "bytecode": {
      "linkReferences": {},
      "object": "60806040523480156200001157600080fd5b506040516200346838038062003468833981016040819052620000349162000134565b6200003f8162000046565b50620001b2565b600054610100900460ff1680620000625750620000626200012e565b8062000071575060005460ff16155b620000995760405162461bcd60e51b8152600401620000909062000164565b60405180910390fd5b600054610100900460ff16158015620000c5576000805460ff1961ff0019909116610100171660011790555b6000805462010000600160b01b031916620100006001600160a01b0385169081029190911782556040519091907f8be0079c531659141344cd1fd0a4f28419497f9722a3daafe3b4186f6b6457e0908290a380156200012a576000805461ff00191690555b5050565b303b1590565b60006020828403121562000146578081fd5b81516001600160a01b03811681146200015d578182fd5b9392505050565b6020808252602e908201527f436f6e747261637420696e7374616e63652068617320616c726561647920626560408201526d195b881a5b9a5d1a585b1a5e995960921b606082015260800190565b6132a680620001c26000396000f3fe608060405234801561001057600080fd5b506004361061014d5760003560e01c80639e3cd3ea116100c3578063e3fc028d1161007c578063e3fc028d146102cd578063e80160ab146102e0578063ea38603e14610300578063f193851714610313578063f2fde38b14610326578063f66e40f0146103395761014d565b80639e3cd3ea14610241578063a77008dc14610261578063b4b9c3c014610274578063c3733c0414610287578063cd6dc6871461029a578063dec4b4b8146102ad5761014d565b80633dcd50ea116101155780633dcd50ea146101be57806368d83aa7146101d157806374950ffd146101e657806375151b63146101f95780637f1fdd9e146102195780638da5cb5b1461022c5761014d565b80630cc30d2b146101525780631c51ee8b146101675780631dd357a71461017a5780632a4f16211461019857806334d5767e146101ab575b600080fd5b61016561016036600461260a565b61034c565b005b61016561017536600461266d565b6103ee565b61018261042a565b60405161018f91906127e5565b60405180910390f35b6101656101a636600461260a565b610430565b6101656101b936600461266d565b6104cb565b6101826101cc36600461266d565b6105a7565b6101d9610606565b60405161018f9190612782565b6101656101f436600461266d565b6106de565b61020c61020736600461260a565b610c0f565b60405161018f91906127da565b61016561022736600461266d565b610c43565b6102346110b6565b60405161018f9190612731565b61025461024f36600461266d565b6110cb565b60405161018f91906127ee565b61016561026f366004612685565b6110ff565b610182610282366004612685565b611355565b61020c61029536600461260a565b6113d8565b6101656102a8366004612624565b6113e5565b6102c06102bb36600461266d565b61147c565b60405161018f9190613083565b6101656102db36600461266d565b61153e565b6102f36102ee36600461266d565b6117e4565b60405161018f9190613092565b61016561030e36600461266d565b611905565b61018261032136600461260a565b611b6b565b61016561033436600461260a565b611b86565b61016561034736600461266d565b611c45565b6000546201000090046001600160a01b031633146103855760405162461bcd60e51b815260040161037c90612d96565b60405180910390fd5b61038e81610c0f565b6103aa5760405162461bcd60e51b815260040161037c90613031565b6103b660028281611e8e565b506040516001600160a01b038216907f14e62acc447e0c3d80c0cd4bb9aa324840041cd354ca25b3c7dd28ef7d18aeb290600090a250565b6000546201000090046001600160a01b0316331461041e5760405162461bcd60e51b815260040161037c90612d96565b61042781611eb9565b50565b60015490565b6000546201000090046001600160a01b031633146104605760405162461bcd60e51b815260040161037c90612d96565b61046981610c0f565b156104865760405162461bcd60e51b815260040161037c90612b6f565b6104936002826001611e8e565b506040516001600160a01b038216907fea3145306a87baeba6bb1a8b5c8d3744f840a81cb436b3509f64fc978600cdfb90600090a250565b600081815260076020526040902060018101548291906001600160a01b031633146105085760405162461bcd60e51b815260040161037c90612c12565b6000610513846110cb565b600281111561051e57fe5b1461053b5760405162461bcd60e51b815260040161037c90612f2e565b6105486005846002611f0c565b50600083815260076020526040908190206002015490516001600160a01b039091169033907f6f8514a9d3ed057849a25183c24cb6a848711ebd4ad2e163ffd3081ce72a348f9061059a9087906127e5565b60405180910390a3505050565b600060016105b4836110cb565b60028111156105bf57fe5b146105dc5760405162461bcd60e51b815260040161037c90612a4f565b60008281526008602052604090206005810154600a8201546105fd91611f1f565b9150505b919050565b606060006106146005611f44565b905060608167ffffffffffffffff8111801561062f57600080fd5b5060405190808252806020026020018201604052801561066957816020015b610656612552565b81526020019060019003908161064e5790505b50905060005b828110156106d757600080610685600584611f4f565b9092509050610692612552565b60405180604001604052808481526020018360028111156106af57fe5b8152509050808585815181106106c157fe5b602090810291909101015250505060010161066f565b5091505090565b600081815260076020526040902060018101548291906001600160a01b0316331480610716575060028101546001600160a01b031633145b6107325760405162461bcd60e51b815260040161037c90612999565b600161073d846110cb565b600281111561074857fe5b146107655760405162461bcd60e51b815260040161037c90612f2e565b60008381526008602052604090206001600982015460ff16600781111561078857fe5b14806107a657506004600982015460ff1660078111156107a457fe5b145b6107c25760405162461bcd60e51b815260040161037c90612b2e565b42600b8201556001600982015460ff1660078111156107dd57fe5b1415610a525760028101546001600160a01b0316331461080f5760405162461bcd60e51b815260040161037c9061282f565b600061081a856105a7565b4210801591506108385760098201805460ff19166003179055610848565b60098201805460ff191660021790555b60008581526008602081905260409091208354815560018085015481830180546001600160a01b039283166001600160a01b031991821617909155600280880154908501805491841691831691909117905560038088015490850155600480880154908501556005808801549085015560068088015490850180549190931691161790556007808601548184015585840154938301939093556009808601549083018054879560ff90931693919260ff199091169190849081111561090957fe5b02179055506009828101549082018054610100600160a81b031916610100928390046001600160a01b03908116909302179055600a8084015490830155600b92830154929091019190915560068301541681156109d6576007830154600090610973906002611f7d565b60078501549091506000906109889083611fbf565b600986015460088701549192506109b3916001600160a01b0386811692610100900416908401612001565b60018501546109cf906001600160a01b03858116911684612001565b5050610a03565b600983015460088401546007850154610a03926001600160a01b0385811693610100909204169101612001565b6009830154600284015460405188926001600160a01b0361010090910481169216907f13b94c2676b6a7ca30c6acf651c4f7ec5485f8fe737b9ea1a28192223373473c90600090a45050610c09565b60018101546001600160a01b03163314610a7e5760405162461bcd60e51b815260040161037c90612c12565b60098181018054600760ff199182168117835560008881526008602081905260409091208654815560018088015482820180546001600160a01b039283166001600160a01b0319918216179091556002808b015490850180549184169183169190911790556003808b0154908501556004808b0154908501556005808b0154908501556006808b015490850180549190931691161790558388015482850155828801549282019290925593549484018054879660ff16949193911691908490811115610b4657fe5b02179055506009828101548282018054610100600160a81b031916610100928390046001600160a01b03908116840291909117909155600a8086015490850155600b9485015494909301939093556006840154908401546008850154600786015492841694610bbf948694919093049092169101612001565b6009820154600183015460405187926001600160a01b0361010090910481169216907f8e9162096875cea76e44835b1443eb0a219124b5732df67c32c7ac720c27091190600090a4505b50505050565b6000610c1c600283612057565b8015610c3d57506001610c3060028461206c565b6002811115610c3b57fe5b145b92915050565b600081815260076020526040902060018101548291906001600160a01b0316331480610c7b575060028101546001600160a01b031633145b610c975760405162461bcd60e51b815260040161037c90612999565b6001610ca2846110cb565b6002811115610cad57fe5b14610cca5760405162461bcd60e51b815260040161037c90612f2e565b60008381526008602052604090206001600982015460ff166007811115610ced57fe5b1480610d0b57506004600982015460ff166007811115610d0957fe5b145b610d275760405162461bcd60e51b815260040161037c90612b2e565b42600b8201556001600982015460ff166007811115610d4257fe5b1415610ee65760028101546001600160a01b03163314610d745760405162461bcd60e51b815260040161037c9061282f565b6009818101805460ff199081166004908117835560008881526008602081905260409091208654815560018088015482820180546001600160a01b03199081166001600160a01b03938416179091556002808b0154908501805483169184169190911790556003808b015490850155858a0154958401959095556005808a0154908401556006808a0154908401805490961691161790935560078088015481830155828801549282019290925593549484018054879660ff169491939116918490811115610e3e57fe5b02179055506009828101548282018054610100600160a81b031916610100928390046001600160a01b03908116840291909117909155600a8086015490850155600b94850154949093019390935583015460028401546001850154604051949092048316939083169291909116907f248bff50e8bd70639383de46f68e43c884092fb5a74d6d3377c5adbe96b7da3690610ed99089906127e5565b60405180910390a4610c09565b60018101546001600160a01b03163314610f125760405162461bcd60e51b815260040161037c90612c12565b6009818101805460ff199081166005908117835560008881526008602081905260409091208654815560018088015482820180546001600160a01b03199081166001600160a01b03938416179091556002808b0154908501805483169184169190911790556003808b0154908501556004808b015490850155858a0154958401959095556006808a0154908401805490961691161790935560078088015481830155828801549282019290925593549484018054879660ff169491939116918490811115610fdc57fe5b02179055506009828101549082018054610100600160a81b031916610100928390046001600160a01b03908116909302179055600a8084015490830155600b92830154929091019190915560068201546001830154600884015460078501549284169361104f9385939091169101612001565b6009820154600283015460018401546040516101009093046001600160a01b0390811693928116929116907f849e022a14ed8e4f004fcadbdb0de717a721c487cf6fe68dc8357da22da8a9a3906110a7908a906127e5565b60405180910390a45050505050565b6000546201000090046001600160a01b031690565b60006110d860058361208c565b6110f45760405162461bcd60e51b815260040161037c90612a07565b610c3d600583612098565b61111261020760e0830160c0840161260a565b61112e5760405162461bcd60e51b815260040161037c90613031565b3360009081526004602052604090205481351461115d5760405162461bcd60e51b815260040161037c90612e19565b3361116e604083016020840161260a565b6001600160a01b0316146111945760405162461bcd60e51b815260040161037c90612edc565b60006111a6606083016040840161260a565b6001600160a01b031614156111cd5760405162461bcd60e51b815260040161037c90612e87565b60608101356111ee5760405162461bcd60e51b815260040161037c90612cbb565b608081013561120f5760405162461bcd60e51b815260040161037c906128cf565b6001548160a0013510156112355760405162461bcd60e51b815260040161037c90612fbd565b60008160e00135116112595760405162461bcd60e51b815260040161037c90612d48565b60008161010001351161127e5760405162461bcd60e51b815260040161037c9061287d565b6112a8333060e084018035906112979060c0870161260a565b6001600160a01b03169291906120a4565b60006112b382611355565b90506112c26005826000611f0c565b50600081815260076020526040902082906112dd8282613177565b5050336000908152600460205260409081902080546001019055611307906060840190840161260a565b6001600160a01b0316336001600160a01b03167f890a69111c6fd5a0accb8c2e67bface6e9650d699d7646f23da989c96a4bd63f8360405161134991906127e5565b60405180910390a35050565b60008135611369604084016020850161260a565b611379606085016040860161260a565b6060850135608086013560a087013561139860e0890160c08a0161260a565b8860e001358961010001356040516020016113bb999897969594939291906130ea565b604051602081830303815290604052805190602001209050919050565b6000610c3d600283612057565b600054610100900460ff16806113fe57506113fe6120c5565b8061140c575060005460ff16155b6114285760405162461bcd60e51b815260040161037c90612dcb565b600054610100900460ff16158015611453576000805460ff1961ff0019909116610100171660011790555b61145c836120cb565b6114658261041e565b8015611477576000805461ff00191690555b505050565b611484612569565b600161148f836110cb565b600281111561149a57fe5b14156114b85760405162461bcd60e51b815260040161037c90612a07565b506000908152600760208181526040928390208351610120810185528154815260018201546001600160a01b039081169382019390935260028201548316948101949094526003810154606085015260048101546080850152600581015460a0850152600681015490911660c08401529081015460e08301526008015461010082015290565b600081815260076020526040902060018101548291906001600160a01b0316331461157b5760405162461bcd60e51b815260040161037c90612c12565b6001611586846110cb565b600281111561159157fe5b146115ae5760405162461bcd60e51b815260040161037c90612f2e565b600083815260086020526040902060018101546001600160a01b031633146115e85760405162461bcd60e51b815260040161037c90612c12565b6001600982015460ff1660078111156115fd57fe5b1461161a5760405162461bcd60e51b815260040161037c90612b2e565b611623846105a7565b4210156116425760405162461bcd60e51b815260040161037c90612a97565b60098181018054600660ff199182168117835542600b86015560008881526008602081905260409091208654815560018088015482820180546001600160a01b039283166001600160a01b0319918216179091556002808b015490850180549184169183169190911790556003808b0154908501556004808b0154908501556005808b015490850155858a015495840180549690921695169490941790935560078088015481830155828801549282019290925593549484018054879660ff16949193911691849081111561171357fe5b02179055506009828101549082018054610100600160a81b031916610100928390046001600160a01b03908116909302179055600a8084015490830155600b9283015492909101919091556006820154600183015460088401546007850154928416936117869385939091169101612001565b600982015460018301546040516101009092046001600160a01b03908116929116907f25e1ed33538b04c31b25e054018fca02da1cb5aefa51e33eb9f42c606972e77c906117d59089906127e5565b60405180910390a35050505050565b6117ec6125b5565b60016117f7836110cb565b600281111561180257fe5b1461181f5760405162461bcd60e51b815260040161037c90612a4f565b60008281526008602081815260409283902083516101c08101909452805460a0850190815260018201546001600160a01b0390811660c08701526002830154811660e0870152600383015461010087015260048301546101208701526005830154610140870152600683015416610160860152600780830154610180870152938201546101a08601528452600981015490929184019160ff909116908111156118c457fe5b60078111156118cf57fe5b8152600982015461010090046001600160a01b03166020820152600a8201546040820152600b9091015460609091015292915050565b6000611910826110cb565b600281111561191b57fe5b146119385760405162461bcd60e51b815260040161037c90612f2e565b600081815260076020526040902060088101546006820154611969916001600160a01b0390911690339030906120a4565b6119766005836001611f0c565b50604080516101c08101909152815460a0820190815260018301546001600160a01b0390811660c08401526002840154811660e0840152600384015461010084015260048401546101208401526005840154610140840152600684015416610160830152600783015461018083015260088301546101a08301528152602081016000815233602080830191909152426040808401829052606093840191909152600086815260088084529082902085518051825580850151600180840180546001600160a01b03199081166001600160a01b03948516179091559583015160028501805488169184169190911790559682015160038401556080820151600484015560a0820151600584015560c082015160068401805490961691161790935560e083015160078083019190915561010090930151918101919091559184015160098301805493949193909260ff1990911691908490811115611ad557fe5b0217905550604082810151600983018054610100600160a81b0319166101006001600160a01b03938416021790556060840151600a840155608090930151600b90920191909155600283015460018401549151339391821692909116907f1c2363e75f9dd469f4e810d4a15665f965c6811035b4ea3967f975055209b25f90611b5f9087906127e5565b60405180910390a45050565b6001600160a01b031660009081526004602052604090205490565b6000546201000090046001600160a01b03163314611bb65760405162461bcd60e51b815260040161037c90612d96565b6001600160a01b038116611bdc5760405162461bcd60e51b815260040161037c9061291c565b600080546040516001600160a01b03808516936201000090930416917f8be0079c531659141344cd1fd0a4f28419497f9722a3daafe3b4186f6b6457e091a3600080546001600160a01b03909216620100000262010000600160b01b0319909216919091179055565b600081815260076020526040902060018101548291906001600160a01b03163314611c825760405162461bcd60e51b815260040161037c90612c12565b6001611c8d846110cb565b6002811115611c9857fe5b14611cb55760405162461bcd60e51b815260040161037c90612f2e565b600083815260086020526040902060018101546001600160a01b03163314611cef5760405162461bcd60e51b815260040161037c90612bc0565b6000600982015460ff166007811115611d0457fe5b14611d215760405162461bcd60e51b815260040161037c90612b2e565b60098181018054600160ff199182168117835542600b8601556000888152600860208190526040909120865481558287015481840180546001600160a01b039283166001600160a01b0319918216179091556002808a015490840180549184169183169190911790556003808a0154908401556004808a0154908401556005808a0154908401556006808a0154908401805491909316911617905560078088015481830155828801549282019290925593549484018054879660ff169491939116918490811115611dee57fe5b02179055506009828101548282018054610100600160a81b031916610100928390046001600160a01b03908116840291909117909155600a8086015490850155600b94850154949093019390935583015460028401546040519390910482169291169033907fb6ecef9b285717e6559d31d84010ab1c9043b3c9693f1870c48b1bc825d805f490611e809089906127e5565b60405180910390a450505050565b6000611eaf846001600160a01b038516846002811115611eaa57fe5b6121a1565b90505b9392505050565b60008111611ed95760405162461bcd60e51b815260040161037c90612c5e565b600181905560405181907fad78b86f9045c8fef4cda954508000d7ee3a9ad763fdc46e4340c60dd6d06b6990600090a250565b6000611eaf8484846002811115611eaa57fe5b600082820183811015611eb25760405162461bcd60e51b815260040161037c90612962565b6000610c3d82612238565b6000808080611f5e868661223c565b909250905081816002811115611f7057fe5b9350935050509250929050565b6000611eb283836040518060400160405280601a81526020017f536166654d6174683a206469766973696f6e206279207a65726f000000000000815250612298565b6000611eb283836040518060400160405280601e81526020017f536166654d6174683a207375627472616374696f6e206f766572666c6f7700008152506122cf565b6114778363a9059cbb60e01b8484604051602401612020929190612769565b60408051601f198184030181529190526020810180516001600160e01b03166001600160e01b0319909316929092179091526122fb565b6000611eb2836001600160a01b03841661238a565b6000612081836001600160a01b0384166123a2565b6002811115611eb257fe5b6000611eb2838361238a565b600061208183836123a2565b610c09846323b872dd60e01b85858560405160240161202093929190612745565b303b1590565b600054610100900460ff16806120e457506120e46120c5565b806120f2575060005460ff16155b61210e5760405162461bcd60e51b815260040161037c90612dcb565b600054610100900460ff16158015612139576000805460ff1961ff0019909116610100171660011790555b6000805462010000600160b01b031916620100006001600160a01b0385169081029190911782556040519091907f8be0079c531659141344cd1fd0a4f28419497f9722a3daafe3b4186f6b6457e0908290a3801561219d576000805461ff00191690555b5050565b600082815260018401602052604081205480612206575050604080518082018252838152602080820184815286546001818101895560008981528481209551600290930290950191825591519082015586548684528188019092529290912055611eb2565b8285600001600183038154811061221957fe5b9060005260206000209060020201600101819055506000915050611eb2565b5490565b8154600090819083106122615760405162461bcd60e51b815260040161037c90612d06565b600084600001848154811061227257fe5b906000526020600020906002020190508060000154816001015492509250509250929050565b600081836122b95760405162461bcd60e51b815260040161037c91906127fc565b5060008385816122c557fe5b0495945050505050565b600081848411156122f35760405162461bcd60e51b815260040161037c91906127fc565b505050900390565b6060612350826040518060400160405280602081526020017f5361666545524332303a206c6f772d6c6576656c2063616c6c206661696c6564815250856001600160a01b03166123e49092919063ffffffff16565b805190915015611477578080602001905181019061236e919061264d565b6114775760405162461bcd60e51b815260040161037c90612f73565b60009081526001919091016020526040902054151590565b6000611eb283836040518060400160405280601e81526020017f456e756d657261626c654d61703a206e6f6e6578697374656e74206b657900008152506123f3565b6060611eaf8484600085612452565b600082815260018401602052604081205482816124235760405162461bcd60e51b815260040161037c91906127fc565b5084600001600182038154811061243657fe5b9060005260206000209060020201600101549150509392505050565b6060824710156124745760405162461bcd60e51b815260040161037c90612ae8565b61247d85612513565b6124995760405162461bcd60e51b815260040161037c90612e50565b60006060866001600160a01b031685876040516124b69190612715565b60006040518083038185875af1925050503d80600081146124f3576040519150601f19603f3d011682016040523d82523d6000602084013e6124f8565b606091505b5091509150612508828286612519565b979650505050505050565b3b151590565b60608315612528575081611eb2565b8251156125385782518084602001fd5b8160405162461bcd60e51b815260040161037c91906127fc565b604080518082019091526000808252602082015290565b6040805161012081018252600080825260208201819052918101829052606081018290526080810182905260a0810182905260c0810182905260e0810182905261010081019190915290565b6040518060a001604052806125c8612569565b81526020016000815260200160006001600160a01b0316815260200160008152602001600081525090565b80356001600160a01b038116811461060157600080fd5b60006020828403121561261b578081fd5b611eb2826125f3565b60008060408385031215612636578081fd5b61263f836125f3565b946020939093013593505050565b60006020828403121561265e578081fd5b81518015158114611eb2578182fd5b60006020828403121561267e578081fd5b5035919050565b60006101208284031215612697578081fd5b50919050565b600381106126a757fe5b9052565b80518252602081015160018060a01b038082166020850152806040840151166040850152606083015160608501526080830151608085015260a083015160a08501528060c08401511660c0850152505060e081015160e08301526101008082015181840152505050565b60008251612727818460208701613137565b9190910192915050565b6001600160a01b0391909116815260200190565b6001600160a01b039384168152919092166020820152604081019190915260600190565b6001600160a01b03929092168252602082015260400190565b602080825282518282018190526000919060409081850190868401855b828110156127cd578151805185528601516127bc8786018261269d565b50928401929085019060010161279f565b5091979650505050505050565b901515815260200190565b90815260200190565b60208101610c3d828461269d565b600060208252825180602084015261281b816040850160208701613137565b601f01601f19169190910160400192915050565b6020808252602e908201527f4475636b457870726573733a2063616c6c6572206973206e6f7420746865206f60408201526d666665722061646472657373656560901b606082015260800190565b60208082526032908201527f4475636b457870726573733a2074686520636f6c6c61746572616c206d75737460408201527102062652067726561746572207468616e20360741b606082015260800190565b6020808252602d908201527f4475636b457870726573733a207468652064656c69766572792061646472657360408201526c1cc81b5d5cdd081899481cd95d609a1b606082015260800190565b60208082526026908201527f4f776e61626c653a206e6577206f776e657220697320746865207a65726f206160408201526564647265737360d01b606082015260800190565b6020808252601b908201527f536166654d6174683a206164646974696f6e206f766572666c6f770000000000604082015260600190565b60208082526048908201527f4475636b457870726573733a2063616c6c6572206973206e656974686572207460408201527f6865206f666665722063726561746f72206e6f7220746865206f666665722061606082015267646472657373656560c01b608082015260a00190565b60208082526028908201527f4475636b457870726573733a206e6f206f6666657220776974682070726f76696040820152670c8cac840d0c2e6d60c31b606082015260800190565b60208082526028908201527f4475636b457870726573733a206e6f206f7264657220776974682070726f76696040820152670c8cac840d0c2e6d60c31b606082015260800190565b60208082526031908201527f4475636b457870726573733a207468652064656c69766572792074696d652068604082015270185cc81b9bdd081c185cdcd959081e595d607a1b606082015260800190565b60208082526026908201527f416464726573733a20696e73756666696369656e742062616c616e636520666f6040820152651c8818d85b1b60d21b606082015260800190565b60208082526021908201527f4475636b457870726573733a20696e76616c6964206f726465722073746174756040820152607360f81b606082015260800190565b60208082526031908201527f4475636b457870726573733a2074686520455243323020746f6b656e20697320604082015270185b1c9958591e481cdd5c1c1bdc9d1959607a1b606082015260800190565b60208082526032908201527f4475636b457870726573733a20796f7520617265206e6f74207468652063726560408201527130ba37b91037b3103a3434b99037b33332b960711b606082015260800190565b6020808252602c908201527f4475636b457870726573733a2063616c6c6572206973206e6f7420746865206f60408201526b333332b91031b932b0ba37b960a11b606082015260800190565b6020808252603b908201527f4475636b457870726573733a20746865206d696e2065787069726174696f6e2060408201527f74696d65206d7573742062652067726561746572207468616e20300000000000606082015260800190565b6020808252602b908201527f4475636b457870726573733a20746865207069636b757020616464726573732060408201526a1b5d5cdd081899481cd95d60aa1b606082015260800190565b60208082526022908201527f456e756d657261626c654d61703a20696e646578206f7574206f6620626f756e604082015261647360f01b606082015260800190565b6020808252602e908201527f4475636b457870726573733a2074686520726577617264206d7573742062652060408201526d067726561746572207468616e20360941b606082015260800190565b6020808252818101527f4f776e61626c653a2063616c6c6572206973206e6f7420746865206f776e6572604082015260600190565b6020808252602e908201527f436f6e747261637420696e7374616e63652068617320616c726561647920626560408201526d195b881a5b9a5d1a585b1a5e995960921b606082015260800190565b6020808252601c908201527f4475636b457870726573733a20696e636f7272656374206e6f6e636500000000604082015260600190565b6020808252601d908201527f416464726573733a2063616c6c20746f206e6f6e2d636f6e7472616374000000604082015260600190565b60208082526035908201527f4475636b457870726573733a2061646472657373656520616464726573732063604082015274616e6e6f74206265207a65726f206164647265737360581b606082015260800190565b60208082526032908201527f4475636b457870726573733a20637573746f6d65722061646472657373206d75604082015271737420626520796f7572206164647265737360701b606082015260800190565b60208082526025908201527f4475636b457870726573733a20746865206f6666657220697320756e617661696040820152646c61626c6560d81b606082015260800190565b6020808252602a908201527f5361666545524332303a204552433230206f7065726174696f6e20646964206e6040820152691bdd081cdd58d8d9595960b21b606082015260800190565b6020808252604e908201527f4475636b457870726573733a207468652064656c69766572792074696d65206360408201527f616e6e6f74206265206c6573736572207468616e20746865206d696e696d616c60608201526d2064656c69766572792074696d6560901b608082015260a00190565b60208082526032908201527f4475636b457870726573733a20746865204552433230206c6f616e20746f6b656040820152711b881a5cc81b9bdd081cdd5c1c1bdc9d195960721b606082015260800190565b6101208101610c3d82846126ab565b60006101a0820190506130a68284516126ab565b6020830151600881106130b557fe5b61012083015260408301516001600160a01b031661014083015260608301516101608301526080909201516101809091015290565b9889526001600160a01b0397881660208a015295871660408901526060880194909452608087019290925260a086015290921660c084015260e08301919091526101008201526101200190565b60005b8381101561315257818101518382015260200161313a565b83811115610c095750506000910152565b80356001600160a01b038116811461060157fe5b600061318583358284613251565b61319e61319460208501613163565b826001850161322b565b6131b76131ad60408501613163565b826002850161322b565b6131c960608401358260038501613251565b6131db60808401358260048501613251565b6131ed60a08401358260058501613251565b6132066131fc60c08501613163565b826006850161322b565b61321860e08401358260078501613251565b6114776101008401358260088501613251565b805460089290920292831b6001600160a01b0390931b9283169219909116919091179055565b805460088302600019811b8086831b168119841617845550505050505056fea264697066735822122032c18aef087199e9b611671fbe19d59e3ce4de518c4c0a9192863c702950093464736f6c63430007030033",
      "opcodes": "PUSH1 0x80 PUSH1 0x40 MSTORE CALLVALUE DUP1 ISZERO PUSH3 0x11 JUMPI PUSH1 0x0 DUP1 REVERT JUMPDEST POP PUSH1 0x40 MLOAD PUSH3 0x3468 CODESIZE SUB DUP1 PUSH3 0x3468 DUP4 CODECOPY DUP2 ADD PUSH1 0x40 DUP2 SWAP1 MSTORE PUSH3 0x34 SWAP2 PUSH3 0x134 JUMP JUMPDEST PUSH3 0x3F DUP2 PUSH3 0x46 JUMP JUMPDEST POP PUSH3 0x1B2 JUMP JUMPDEST PUSH1 0x0 SLOAD PUSH2 0x100 SWAP1 DIV PUSH1 0xFF AND DUP1 PUSH3 0x62 JUMPI POP PUSH3 0x62 PUSH3 0x12E JUMP JUMPDEST DUP1 PUSH3 0x71 JUMPI POP PUSH1 0x0 SLOAD PUSH1 0xFF AND ISZERO JUMPDEST PUSH3 0x99 JUMPI PUSH1 0x40 MLOAD PUSH3 0x461BCD PUSH1 0xE5 SHL DUP2 MSTORE PUSH1 0x4 ADD PUSH3 0x90 SWAP1 PUSH3 0x164 JUMP JUMPDEST PUSH1 0x40 MLOAD DUP1 SWAP2 SUB SWAP1 REVERT JUMPDEST PUSH1 0x0 SLOAD PUSH2 0x100 SWAP1 DIV PUSH1 0xFF AND ISZERO DUP1 ISZERO PUSH3 0xC5 JUMPI PUSH1 0x0 DUP1 SLOAD PUSH1 0xFF NOT PUSH2 0xFF00 NOT SWAP1 SWAP2 AND PUSH2 0x100 OR AND PUSH1 0x1 OR SWAP1 SSTORE JUMPDEST PUSH1 0x0 DUP1 SLOAD PUSH3 0x10000 PUSH1 0x1 PUSH1 0xB0 SHL SUB NOT AND PUSH3 0x10000 PUSH1 0x1 PUSH1 0x1 PUSH1 0xA0 SHL SUB DUP6 AND SWAP1 DUP2 MUL SWAP2 SWAP1 SWAP2 OR DUP3 SSTORE PUSH1 0x40 MLOAD SWAP1 SWAP2 SWAP1 PUSH32 0x8BE0079C531659141344CD1FD0A4F28419497F9722A3DAAFE3B4186F6B6457E0 SWAP1 DUP3 SWAP1 LOG3 DUP1 ISZERO PUSH3 0x12A JUMPI PUSH1 0x0 DUP1 SLOAD PUSH2 0xFF00 NOT AND SWAP1 SSTORE JUMPDEST POP POP JUMP JUMPDEST ADDRESS EXTCODESIZE ISZERO SWAP1 JUMP JUMPDEST PUSH1 0x0 PUSH1 0x20 DUP3 DUP5 SUB SLT ISZERO PUSH3 0x146 JUMPI DUP1 DUP2 REVERT JUMPDEST DUP2 MLOAD PUSH1 0x1 PUSH1 0x1 PUSH1 0xA0 SHL SUB DUP2 AND DUP2 EQ PUSH3 0x15D JUMPI DUP2 DUP3 REVERT JUMPDEST SWAP4 SWAP3 POP POP POP JUMP JUMPDEST PUSH1 0x20 DUP1 DUP3 MSTORE PUSH1 0x2E SWAP1 DUP3 ADD MSTORE PUSH32 0x436F6E747261637420696E7374616E63652068617320616C7265616479206265 PUSH1 0x40 DUP3 ADD MSTORE PUSH14 0x195B881A5B9A5D1A585B1A5E9959 PUSH1 0x92 SHL PUSH1 0x60 DUP3 ADD MSTORE PUSH1 0x80 ADD SWAP1 JUMP JUMPDEST PUSH2 0x32A6 DUP1 PUSH3 0x1C2 PUSH1 0x0 CODECOPY PUSH1 0x0 RETURN INVALID PUSH1 0x80 PUSH1 0x40 MSTORE CALLVALUE DUP1 ISZERO PUSH2 0x10 JUMPI PUSH1 0x0 DUP1 REVERT JUMPDEST POP PUSH1 0x4 CALLDATASIZE LT PUSH2 0x14D JUMPI PUSH1 0x0 CALLDATALOAD PUSH1 0xE0 SHR DUP1 PUSH4 0x9E3CD3EA GT PUSH2 0xC3 JUMPI DUP1 PUSH4 0xE3FC028D GT PUSH2 0x7C JUMPI DUP1 PUSH4 0xE3FC028D EQ PUSH2 0x2CD JUMPI DUP1 PUSH4 0xE80160AB EQ PUSH2 0x2E0 JUMPI DUP1 PUSH4 0xEA38603E EQ PUSH2 0x300 JUMPI DUP1 PUSH4 0xF1938517 EQ PUSH2 0x313 JUMPI DUP1 PUSH4 0xF2FDE38B EQ PUSH2 0x326 JUMPI DUP1 PUSH4 0xF66E40F0 EQ PUSH2 0x339 JUMPI PUSH2 0x14D JUMP JUMPDEST DUP1 PUSH4 0x9E3CD3EA EQ PUSH2 0x241 JUMPI DUP1 PUSH4 0xA77008DC EQ PUSH2 0x261 JUMPI DUP1 PUSH4 0xB4B9C3C0 EQ PUSH2 0x274 JUMPI DUP1 PUSH4 0xC3733C04 EQ PUSH2 0x287 JUMPI DUP1 PUSH4 0xCD6DC687 EQ PUSH2 0x29A JUMPI DUP1 PUSH4 0xDEC4B4B8 EQ PUSH2 0x2AD JUMPI PUSH2 0x14D JUMP JUMPDEST DUP1 PUSH4 0x3DCD50EA GT PUSH2 0x115 JUMPI DUP1 PUSH4 0x3DCD50EA EQ PUSH2 0x1BE JUMPI DUP1 PUSH4 0x68D83AA7 EQ PUSH2 0x1D1 JUMPI DUP1 PUSH4 0x74950FFD EQ PUSH2 0x1E6 JUMPI DUP1 PUSH4 0x75151B63 EQ PUSH2 0x1F9 JUMPI DUP1 PUSH4 0x7F1FDD9E EQ PUSH2 0x219 JUMPI DUP1 PUSH4 0x8DA5CB5B EQ PUSH2 0x22C JUMPI PUSH2 0x14D JUMP JUMPDEST DUP1 PUSH4 0xCC30D2B EQ PUSH2 0x152 JUMPI DUP1 PUSH4 0x1C51EE8B EQ PUSH2 0x167 JUMPI DUP1 PUSH4 0x1DD357A7 EQ PUSH2 0x17A JUMPI DUP1 PUSH4 0x2A4F1621 EQ PUSH2 0x198 JUMPI DUP1 PUSH4 0x34D5767E EQ PUSH2 0x1AB JUMPI JUMPDEST PUSH1 0x0 DUP1 REVERT JUMPDEST PUSH2 0x165 PUSH2 0x160 CALLDATASIZE PUSH1 0x4 PUSH2 0x260A JUMP JUMPDEST PUSH2 0x34C JUMP JUMPDEST STOP JUMPDEST PUSH2 0x165 PUSH2 0x175 CALLDATASIZE PUSH1 0x4 PUSH2 0x266D JUMP JUMPDEST PUSH2 0x3EE JUMP JUMPDEST PUSH2 0x182 PUSH2 0x42A JUMP JUMPDEST PUSH1 0x40 MLOAD PUSH2 0x18F SWAP2 SWAP1 PUSH2 0x27E5 JUMP JUMPDEST PUSH1 0x40 MLOAD DUP1 SWAP2 SUB SWAP1 RETURN JUMPDEST PUSH2 0x165 PUSH2 0x1A6 CALLDATASIZE PUSH1 0x4 PUSH2 0x260A JUMP JUMPDEST PUSH2 0x430 JUMP JUMPDEST PUSH2 0x165 PUSH2 0x1B9 CALLDATASIZE PUSH1 0x4 PUSH2 0x266D JUMP JUMPDEST PUSH2 0x4CB JUMP JUMPDEST PUSH2 0x182 PUSH2 0x1CC CALLDATASIZE PUSH1 0x4 PUSH2 0x266D JUMP JUMPDEST PUSH2 0x5A7 JUMP JUMPDEST PUSH2 0x1D9 PUSH2 0x606 JUMP JUMPDEST PUSH1 0x40 MLOAD PUSH2 0x18F SWAP2 SWAP1 PUSH2 0x2782 JUMP JUMPDEST PUSH2 0x165 PUSH2 0x1F4 CALLDATASIZE PUSH1 0x4 PUSH2 0x266D JUMP JUMPDEST PUSH2 0x6DE JUMP JUMPDEST PUSH2 0x20C PUSH2 0x207 CALLDATASIZE PUSH1 0x4 PUSH2 0x260A JUMP JUMPDEST PUSH2 0xC0F JUMP JUMPDEST PUSH1 0x40 MLOAD PUSH2 0x18F SWAP2 SWAP1 PUSH2 0x27DA JUMP JUMPDEST PUSH2 0x165 PUSH2 0x227 CALLDATASIZE PUSH1 0x4 PUSH2 0x266D JUMP JUMPDEST PUSH2 0xC43 JUMP JUMPDEST PUSH2 0x234 PUSH2 0x10B6 JUMP JUMPDEST PUSH1 0x40 MLOAD PUSH2 0x18F SWAP2 SWAP1 PUSH2 0x2731 JUMP JUMPDEST PUSH2 0x254 PUSH2 0x24F CALLDATASIZE PUSH1 0x4 PUSH2 0x266D JUMP JUMPDEST PUSH2 0x10CB JUMP JUMPDEST PUSH1 0x40 MLOAD PUSH2 0x18F SWAP2 SWAP1 PUSH2 0x27EE JUMP JUMPDEST PUSH2 0x165 PUSH2 0x26F CALLDATASIZE PUSH1 0x4 PUSH2 0x2685 JUMP JUMPDEST PUSH2 0x10FF JUMP JUMPDEST PUSH2 0x182 PUSH2 0x282 CALLDATASIZE PUSH1 0x4 PUSH2 0x2685 JUMP JUMPDEST PUSH2 0x1355 JUMP JUMPDEST PUSH2 0x20C PUSH2 0x295 CALLDATASIZE PUSH1 0x4 PUSH2 0x260A JUMP JUMPDEST PUSH2 0x13D8 JUMP JUMPDEST PUSH2 0x165 PUSH2 0x2A8 CALLDATASIZE PUSH1 0x4 PUSH2 0x2624 JUMP JUMPDEST PUSH2 0x13E5 JUMP JUMPDEST PUSH2 0x2C0 PUSH2 0x2BB CALLDATASIZE PUSH1 0x4 PUSH2 0x266D JUMP JUMPDEST PUSH2 0x147C JUMP JUMPDEST PUSH1 0x40 MLOAD PUSH2 0x18F SWAP2 SWAP1 PUSH2 0x3083 JUMP JUMPDEST PUSH2 0x165 PUSH2 0x2DB CALLDATASIZE PUSH1 0x4 PUSH2 0x266D JUMP JUMPDEST PUSH2 0x153E JUMP JUMPDEST PUSH2 0x2F3 PUSH2 0x2EE CALLDATASIZE PUSH1 0x4 PUSH2 0x266D JUMP JUMPDEST PUSH2 0x17E4 JUMP JUMPDEST PUSH1 0x40 MLOAD PUSH2 0x18F SWAP2 SWAP1 PUSH2 0x3092 JUMP JUMPDEST PUSH2 0x165 PUSH2 0x30E CALLDATASIZE PUSH1 0x4 PUSH2 0x266D JUMP JUMPDEST PUSH2 0x1905 JUMP JUMPDEST PUSH2 0x182 PUSH2 0x321 CALLDATASIZE PUSH1 0x4 PUSH2 0x260A JUMP JUMPDEST PUSH2 0x1B6B JUMP JUMPDEST PUSH2 0x165 PUSH2 0x334 CALLDATASIZE PUSH1 0x4 PUSH2 0x260A JUMP JUMPDEST PUSH2 0x1B86 JUMP JUMPDEST PUSH2 0x165 PUSH2 0x347 CALLDATASIZE PUSH1 0x4 PUSH2 0x266D JUMP JUMPDEST PUSH2 0x1C45 JUMP JUMPDEST PUSH1 0x0 SLOAD PUSH3 0x10000 SWAP1 DIV PUSH1 0x1 PUSH1 0x1 PUSH1 0xA0 SHL SUB AND CALLER EQ PUSH2 0x385 JUMPI PUSH1 0x40 MLOAD PUSH3 0x461BCD PUSH1 0xE5 SHL DUP2 MSTORE PUSH1 0x4 ADD PUSH2 0x37C SWAP1 PUSH2 0x2D96 JUMP JUMPDEST PUSH1 0x40 MLOAD DUP1 SWAP2 SUB SWAP1 REVERT JUMPDEST PUSH2 0x38E DUP2 PUSH2 0xC0F JUMP JUMPDEST PUSH2 0x3AA JUMPI PUSH1 0x40 MLOAD PUSH3 0x461BCD PUSH1 0xE5 SHL DUP2 MSTORE PUSH1 0x4 ADD PUSH2 0x37C SWAP1 PUSH2 0x3031 JUMP JUMPDEST PUSH2 0x3B6 PUSH1 0x2 DUP3 DUP2 PUSH2 0x1E8E JUMP JUMPDEST POP PUSH1 0x40 MLOAD PUSH1 0x1 PUSH1 0x1 PUSH1 0xA0 SHL SUB DUP3 AND SWAP1 PUSH32 0x14E62ACC447E0C3D80C0CD4BB9AA324840041CD354CA25B3C7DD28EF7D18AEB2 SWAP1 PUSH1 0x0 SWAP1 LOG2 POP JUMP JUMPDEST PUSH1 0x0 SLOAD PUSH3 0x10000 SWAP1 DIV PUSH1 0x1 PUSH1 0x1 PUSH1 0xA0 SHL SUB AND CALLER EQ PUSH2 0x41E JUMPI PUSH1 0x40 MLOAD PUSH3 0x461BCD PUSH1 0xE5 SHL DUP2 MSTORE PUSH1 0x4 ADD PUSH2 0x37C SWAP1 PUSH2 0x2D96 JUMP JUMPDEST PUSH2 0x427 DUP2 PUSH2 0x1EB9 JUMP JUMPDEST POP JUMP JUMPDEST PUSH1 0x1 SLOAD SWAP1 JUMP JUMPDEST PUSH1 0x0 SLOAD PUSH3 0x10000 SWAP1 DIV PUSH1 0x1 PUSH1 0x1 PUSH1 0xA0 SHL SUB AND CALLER EQ PUSH2 0x460 JUMPI PUSH1 0x40 MLOAD PUSH3 0x461BCD PUSH1 0xE5 SHL DUP2 MSTORE PUSH1 0x4 ADD PUSH2 0x37C SWAP1 PUSH2 0x2D96 JUMP JUMPDEST PUSH2 0x469 DUP2 PUSH2 0xC0F JUMP JUMPDEST ISZERO PUSH2 0x486 JUMPI PUSH1 0x40 MLOAD PUSH3 0x461BCD PUSH1 0xE5 SHL DUP2 MSTORE PUSH1 0x4 ADD PUSH2 0x37C SWAP1 PUSH2 0x2B6F JUMP JUMPDEST PUSH2 0x493 PUSH1 0x2 DUP3 PUSH1 0x1 PUSH2 0x1E8E JUMP JUMPDEST POP PUSH1 0x40 MLOAD PUSH1 0x1 PUSH1 0x1 PUSH1 0xA0 SHL SUB DUP3 AND SWAP1 PUSH32 0xEA3145306A87BAEBA6BB1A8B5C8D3744F840A81CB436B3509F64FC978600CDFB SWAP1 PUSH1 0x0 SWAP1 LOG2 POP JUMP JUMPDEST PUSH1 0x0 DUP2 DUP2 MSTORE PUSH1 0x7 PUSH1 0x20 MSTORE PUSH1 0x40 SWAP1 KECCAK256 PUSH1 0x1 DUP2 ADD SLOAD DUP3 SWAP2 SWAP1 PUSH1 0x1 PUSH1 0x1 PUSH1 0xA0 SHL SUB AND CALLER EQ PUSH2 0x508 JUMPI PUSH1 0x40 MLOAD PUSH3 0x461BCD PUSH1 0xE5 SHL DUP2 MSTORE PUSH1 0x4 ADD PUSH2 0x37C SWAP1 PUSH2 0x2C12 JUMP JUMPDEST PUSH1 0x0 PUSH2 0x513 DUP5 PUSH2 0x10CB JUMP JUMPDEST PUSH1 0x2 DUP2 GT ISZERO PUSH2 0x51E JUMPI INVALID JUMPDEST EQ PUSH2 0x53B JUMPI PUSH1 0x40 MLOAD PUSH3 0x461BCD PUSH1 0xE5 SHL DUP2 MSTORE PUSH1 0x4 ADD PUSH2 0x37C SWAP1 PUSH2 0x2F2E JUMP JUMPDEST PUSH2 0x548 PUSH1 0x5 DUP5 PUSH1 0x2 PUSH2 0x1F0C JUMP JUMPDEST POP PUSH1 0x0 DUP4 DUP2 MSTORE PUSH1 0x7 PUSH1 0x20 MSTORE PUSH1 0x40 SWAP1 DUP2 SWAP1 KECCAK256 PUSH1 0x2 ADD SLOAD SWAP1 MLOAD PUSH1 0x1 PUSH1 0x1 PUSH1 0xA0 SHL SUB SWAP1 SWAP2 AND SWAP1 CALLER SWAP1 PUSH32 0x6F8514A9D3ED057849A25183C24CB6A848711EBD4AD2E163FFD3081CE72A348F SWAP1 PUSH2 0x59A SWAP1 DUP8 SWAP1 PUSH2 0x27E5 JUMP JUMPDEST PUSH1 0x40 MLOAD DUP1 SWAP2 SUB SWAP1 LOG3 POP POP POP JUMP JUMPDEST PUSH1 0x0 PUSH1 0x1 PUSH2 0x5B4 DUP4 PUSH2 0x10CB JUMP JUMPDEST PUSH1 0x2 DUP2 GT ISZERO PUSH2 0x5BF JUMPI INVALID JUMPDEST EQ PUSH2 0x5DC JUMPI PUSH1 0x40 MLOAD PUSH3 0x461BCD PUSH1 0xE5 SHL DUP2 MSTORE PUSH1 0x4 ADD PUSH2 0x37C SWAP1 PUSH2 0x2A4F JUMP JUMPDEST PUSH1 0x0 DUP3 DUP2 MSTORE PUSH1 0x8 PUSH1 0x20 MSTORE PUSH1 0x40 SWAP1 KECCAK256 PUSH1 0x5 DUP2 ADD SLOAD PUSH1 0xA DUP3 ADD SLOAD PUSH2 0x5FD SWAP2 PUSH2 0x1F1F JUMP JUMPDEST SWAP2 POP POP JUMPDEST SWAP2 SWAP1 POP JUMP JUMPDEST PUSH1 0x60 PUSH1 0x0 PUSH2 0x614 PUSH1 0x5 PUSH2 0x1F44 JUMP JUMPDEST SWAP1 POP PUSH1 0x60 DUP2 PUSH8 0xFFFFFFFFFFFFFFFF DUP2 GT DUP1 ISZERO PUSH2 0x62F JUMPI PUSH1 0x0 DUP1 REVERT JUMPDEST POP PUSH1 0x40 MLOAD SWAP1 DUP1 DUP3 MSTORE DUP1 PUSH1 0x20 MUL PUSH1 0x20 ADD DUP3 ADD PUSH1 0x40 MSTORE DUP1 ISZERO PUSH2 0x669 JUMPI DUP2 PUSH1 0x20 ADD JUMPDEST PUSH2 0x656 PUSH2 0x2552 JUMP JUMPDEST DUP2 MSTORE PUSH1 0x20 ADD SWAP1 PUSH1 0x1 SWAP1 SUB SWAP1 DUP2 PUSH2 0x64E JUMPI SWAP1 POP JUMPDEST POP SWAP1 POP PUSH1 0x0 JUMPDEST DUP3 DUP2 LT ISZERO PUSH2 0x6D7 JUMPI PUSH1 0x0 DUP1 PUSH2 0x685 PUSH1 0x5 DUP5 PUSH2 0x1F4F JUMP JUMPDEST SWAP1 SWAP3 POP SWAP1 POP PUSH2 0x692 PUSH2 0x2552 JUMP JUMPDEST PUSH1 0x40 MLOAD DUP1 PUSH1 0x40 ADD PUSH1 0x40 MSTORE DUP1 DUP5 DUP2 MSTORE PUSH1 0x20 ADD DUP4 PUSH1 0x2 DUP2 GT ISZERO PUSH2 0x6AF JUMPI INVALID JUMPDEST DUP2 MSTORE POP SWAP1 POP DUP1 DUP6 DUP6 DUP2 MLOAD DUP2 LT PUSH2 0x6C1 JUMPI INVALID JUMPDEST PUSH1 0x20 SWAP1 DUP2 MUL SWAP2 SWAP1 SWAP2 ADD ADD MSTORE POP POP POP PUSH1 0x1 ADD PUSH2 0x66F JUMP JUMPDEST POP SWAP2 POP POP SWAP1 JUMP JUMPDEST PUSH1 0x0 DUP2 DUP2 MSTORE PUSH1 0x7 PUSH1 0x20 MSTORE PUSH1 0x40 SWAP1 KECCAK256 PUSH1 0x1 DUP2 ADD SLOAD DUP3 SWAP2 SWAP1 PUSH1 0x1 PUSH1 0x1 PUSH1 0xA0 SHL SUB AND CALLER EQ DUP1 PUSH2 0x716 JUMPI POP PUSH1 0x2 DUP2 ADD SLOAD PUSH1 0x1 PUSH1 0x1 PUSH1 0xA0 SHL SUB AND CALLER EQ JUMPDEST PUSH2 0x732 JUMPI PUSH1 0x40 MLOAD PUSH3 0x461BCD PUSH1 0xE5 SHL DUP2 MSTORE PUSH1 0x4 ADD PUSH2 0x37C SWAP1 PUSH2 0x2999 JUMP JUMPDEST PUSH1 0x1 PUSH2 0x73D DUP5 PUSH2 0x10CB JUMP JUMPDEST PUSH1 0x2 DUP2 GT ISZERO PUSH2 0x748 JUMPI INVALID JUMPDEST EQ PUSH2 0x765 JUMPI PUSH1 0x40 MLOAD PUSH3 0x461BCD PUSH1 0xE5 SHL DUP2 MSTORE PUSH1 0x4 ADD PUSH2 0x37C SWAP1 PUSH2 0x2F2E JUMP JUMPDEST PUSH1 0x0 DUP4 DUP2 MSTORE PUSH1 0x8 PUSH1 0x20 MSTORE PUSH1 0x40 SWAP1 KECCAK256 PUSH1 0x1 PUSH1 0x9 DUP3 ADD SLOAD PUSH1 0xFF AND PUSH1 0x7 DUP2 GT ISZERO PUSH2 0x788 JUMPI INVALID JUMPDEST EQ DUP1 PUSH2 0x7A6 JUMPI POP PUSH1 0x4 PUSH1 0x9 DUP3 ADD SLOAD PUSH1 0xFF AND PUSH1 0x7 DUP2 GT ISZERO PUSH2 0x7A4 JUMPI INVALID JUMPDEST EQ JUMPDEST PUSH2 0x7C2 JUMPI PUSH1 0x40 MLOAD PUSH3 0x461BCD PUSH1 0xE5 SHL DUP2 MSTORE PUSH1 0x4 ADD PUSH2 0x37C SWAP1 PUSH2 0x2B2E JUMP JUMPDEST TIMESTAMP PUSH1 0xB DUP3 ADD SSTORE PUSH1 0x1 PUSH1 0x9 DUP3 ADD SLOAD PUSH1 0xFF AND PUSH1 0x7 DUP2 GT ISZERO PUSH2 0x7DD JUMPI INVALID JUMPDEST EQ ISZERO PUSH2 0xA52 JUMPI PUSH1 0x2 DUP2 ADD SLOAD PUSH1 0x1 PUSH1 0x1 PUSH1 0xA0 SHL SUB AND CALLER EQ PUSH2 0x80F JUMPI PUSH1 0x40 MLOAD PUSH3 0x461BCD PUSH1 0xE5 SHL DUP2 MSTORE PUSH1 0x4 ADD PUSH2 0x37C SWAP1 PUSH2 0x282F JUMP JUMPDEST PUSH1 0x0 PUSH2 0x81A DUP6 PUSH2 0x5A7 JUMP JUMPDEST TIMESTAMP LT DUP1 ISZERO SWAP2 POP PUSH2 0x838 JUMPI PUSH1 0x9 DUP3 ADD DUP1 SLOAD PUSH1 0xFF NOT AND PUSH1 0x3 OR SWAP1 SSTORE PUSH2 0x848 JUMP JUMPDEST PUSH1 0x9 DUP3 ADD DUP1 SLOAD PUSH1 0xFF NOT AND PUSH1 0x2 OR SWAP1 SSTORE JUMPDEST PUSH1 0x0 DUP6 DUP2 MSTORE PUSH1 0x8 PUSH1 0x20 DUP2 SWAP1 MSTORE PUSH1 0x40 SWAP1 SWAP2 KECCAK256 DUP4 SLOAD DUP2 SSTORE PUSH1 0x1 DUP1 DUP6 ADD SLOAD DUP2 DUP4 ADD DUP1 SLOAD PUSH1 0x1 PUSH1 0x1 PUSH1 0xA0 SHL SUB SWAP3 DUP4 AND PUSH1 0x1 PUSH1 0x1 PUSH1 0xA0 SHL SUB NOT SWAP2 DUP3 AND OR SWAP1 SWAP2 SSTORE PUSH1 0x2 DUP1 DUP9 ADD SLOAD SWAP1 DUP6 ADD DUP1 SLOAD SWAP2 DUP5 AND SWAP2 DUP4 AND SWAP2 SWAP1 SWAP2 OR SWAP1 SSTORE PUSH1 0x3 DUP1 DUP9 ADD SLOAD SWAP1 DUP6 ADD SSTORE PUSH1 0x4 DUP1 DUP9 ADD SLOAD SWAP1 DUP6 ADD SSTORE PUSH1 0x5 DUP1 DUP9 ADD SLOAD SWAP1 DUP6 ADD SSTORE PUSH1 0x6 DUP1 DUP9 ADD SLOAD SWAP1 DUP6 ADD DUP1 SLOAD SWAP2 SWAP1 SWAP4 AND SWAP2 AND OR SWAP1 SSTORE PUSH1 0x7 DUP1 DUP7 ADD SLOAD DUP2 DUP5 ADD SSTORE DUP6 DUP5 ADD SLOAD SWAP4 DUP4 ADD SWAP4 SWAP1 SWAP4 SSTORE PUSH1 0x9 DUP1 DUP7 ADD SLOAD SWAP1 DUP4 ADD DUP1 SLOAD DUP8 SWAP6 PUSH1 0xFF SWAP1 SWAP4 AND SWAP4 SWAP2 SWAP3 PUSH1 0xFF NOT SWAP1 SWAP2 AND SWAP2 SWAP1 DUP5 SWAP1 DUP2 GT ISZERO PUSH2 0x909 JUMPI INVALID JUMPDEST MUL OR SWAP1 SSTORE POP PUSH1 0x9 DUP3 DUP2 ADD SLOAD SWAP1 DUP3 ADD DUP1 SLOAD PUSH2 0x100 PUSH1 0x1 PUSH1 0xA8 SHL SUB NOT AND PUSH2 0x100 SWAP3 DUP4 SWAP1 DIV PUSH1 0x1 PUSH1 0x1 PUSH1 0xA0 SHL SUB SWAP1 DUP2 AND SWAP1 SWAP4 MUL OR SWAP1 SSTORE PUSH1 0xA DUP1 DUP5 ADD SLOAD SWAP1 DUP4 ADD SSTORE PUSH1 0xB SWAP3 DUP4 ADD SLOAD SWAP3 SWAP1 SWAP2 ADD SWAP2 SWAP1 SWAP2 SSTORE PUSH1 0x6 DUP4 ADD SLOAD AND DUP2 ISZERO PUSH2 0x9D6 JUMPI PUSH1 0x7 DUP4 ADD SLOAD PUSH1 0x0 SWAP1 PUSH2 0x973 SWAP1 PUSH1 0x2 PUSH2 0x1F7D JUMP JUMPDEST PUSH1 0x7 DUP6 ADD SLOAD SWAP1 SWAP2 POP PUSH1 0x0 SWAP1 PUSH2 0x988 SWAP1 DUP4 PUSH2 0x1FBF JUMP JUMPDEST PUSH1 0x9 DUP7 ADD SLOAD PUSH1 0x8 DUP8 ADD SLOAD SWAP2 SWAP3 POP PUSH2 0x9B3 SWAP2 PUSH1 0x1 PUSH1 0x1 PUSH1 0xA0 SHL SUB DUP7 DUP2 AND SWAP3 PUSH2 0x100 SWAP1 DIV AND SWAP1 DUP5 ADD PUSH2 0x2001 JUMP JUMPDEST PUSH1 0x1 DUP6 ADD SLOAD PUSH2 0x9CF SWAP1 PUSH1 0x1 PUSH1 0x1 PUSH1 0xA0 SHL SUB DUP6 DUP2 AND SWAP2 AND DUP5 PUSH2 0x2001 JUMP JUMPDEST POP POP PUSH2 0xA03 JUMP JUMPDEST PUSH1 0x9 DUP4 ADD SLOAD PUSH1 0x8 DUP5 ADD SLOAD PUSH1 0x7 DUP6 ADD SLOAD PUSH2 0xA03 SWAP3 PUSH1 0x1 PUSH1 0x1 PUSH1 0xA0 SHL SUB DUP6 DUP2 AND SWAP4 PUSH2 0x100 SWAP1 SWAP3 DIV AND SWAP2 ADD PUSH2 0x2001 JUMP JUMPDEST PUSH1 0x9 DUP4 ADD SLOAD PUSH1 0x2 DUP5 ADD SLOAD PUSH1 0x40 MLOAD DUP9 SWAP3 PUSH1 0x1 PUSH1 0x1 PUSH1 0xA0 SHL SUB PUSH2 0x100 SWAP1 SWAP2 DIV DUP2 AND SWAP3 AND SWAP1 PUSH32 0x13B94C2676B6A7CA30C6ACF651C4F7EC5485F8FE737B9EA1A28192223373473C SWAP1 PUSH1 0x0 SWAP1 LOG4 POP POP PUSH2 0xC09 JUMP JUMPDEST PUSH1 0x1 DUP2 ADD SLOAD PUSH1 0x1 PUSH1 0x1 PUSH1 0xA0 SHL SUB AND CALLER EQ PUSH2 0xA7E JUMPI PUSH1 0x40 MLOAD PUSH3 0x461BCD PUSH1 0xE5 SHL DUP2 MSTORE PUSH1 0x4 ADD PUSH2 0x37C SWAP1 PUSH2 0x2C12 JUMP JUMPDEST PUSH1 0x9 DUP2 DUP2 ADD DUP1 SLOAD PUSH1 0x7 PUSH1 0xFF NOT SWAP2 DUP3 AND DUP2 OR DUP4 SSTORE PUSH1 0x0 DUP9 DUP2 MSTORE PUSH1 0x8 PUSH1 0x20 DUP2 SWAP1 MSTORE PUSH1 0x40 SWAP1 SWAP2 KECCAK256 DUP7 SLOAD DUP2 SSTORE PUSH1 0x1 DUP1 DUP9 ADD SLOAD DUP3 DUP3 ADD DUP1 SLOAD PUSH1 0x1 PUSH1 0x1 PUSH1 0xA0 SHL SUB SWAP3 DUP4 AND PUSH1 0x1 PUSH1 0x1 PUSH1 0xA0 SHL SUB NOT SWAP2 DUP3 AND OR SWAP1 SWAP2 SSTORE PUSH1 0x2 DUP1 DUP12 ADD SLOAD SWAP1 DUP6 ADD DUP1 SLOAD SWAP2 DUP5 AND SWAP2 DUP4 AND SWAP2 SWAP1 SWAP2 OR SWAP1 SSTORE PUSH1 0x3 DUP1 DUP12 ADD SLOAD SWAP1 DUP6 ADD SSTORE PUSH1 0x4 DUP1 DUP12 ADD SLOAD SWAP1 DUP6 ADD SSTORE PUSH1 0x5 DUP1 DUP12 ADD SLOAD SWAP1 DUP6 ADD SSTORE PUSH1 0x6 DUP1 DUP12 ADD SLOAD SWAP1 DUP6 ADD DUP1 SLOAD SWAP2 SWAP1 SWAP4 AND SWAP2 AND OR SWAP1 SSTORE DUP4 DUP9 ADD SLOAD DUP3 DUP6 ADD SSTORE DUP3 DUP9 ADD SLOAD SWAP3 DUP3 ADD SWAP3 SWAP1 SWAP3 SSTORE SWAP4 SLOAD SWAP5 DUP5 ADD DUP1 SLOAD DUP8 SWAP7 PUSH1 0xFF AND SWAP5 SWAP2 SWAP4 SWAP2 AND SWAP2 SWAP1 DUP5 SWAP1 DUP2 GT ISZERO PUSH2 0xB46 JUMPI INVALID JUMPDEST MUL OR SWAP1 SSTORE POP PUSH1 0x9 DUP3 DUP2 ADD SLOAD DUP3 DUP3 ADD DUP1 SLOAD PUSH2 0x100 PUSH1 0x1 PUSH1 0xA8 SHL SUB NOT AND PUSH2 0x100 SWAP3 DUP4 SWAP1 DIV PUSH1 0x1 PUSH1 0x1 PUSH1 0xA0 SHL SUB SWAP1 DUP2 AND DUP5 MUL SWAP2 SWAP1 SWAP2 OR SWAP1 SWAP2 SSTORE PUSH1 0xA DUP1 DUP7 ADD SLOAD SWAP1 DUP6 ADD SSTORE PUSH1 0xB SWAP5 DUP6 ADD SLOAD SWAP5 SWAP1 SWAP4 ADD SWAP4 SWAP1 SWAP4 SSTORE PUSH1 0x6 DUP5 ADD SLOAD SWAP1 DUP5 ADD SLOAD PUSH1 0x8 DUP6 ADD SLOAD PUSH1 0x7 DUP7 ADD SLOAD SWAP3 DUP5 AND SWAP5 PUSH2 0xBBF SWAP5 DUP7 SWAP5 SWAP2 SWAP1 SWAP4 DIV SWAP1 SWAP3 AND SWAP2 ADD PUSH2 0x2001 JUMP JUMPDEST PUSH1 0x9 DUP3 ADD SLOAD PUSH1 0x1 DUP4 ADD SLOAD PUSH1 0x40 MLOAD DUP8 SWAP3 PUSH1 0x1 PUSH1 0x1 PUSH1 0xA0 SHL SUB PUSH2 0x100 SWAP1 SWAP2 DIV DUP2 AND SWAP3 AND SWAP1 PUSH32 0x8E9162096875CEA76E44835B1443EB0A219124B5732DF67C32C7AC720C270911 SWAP1 PUSH1 0x0 SWAP1 LOG4 POP JUMPDEST POP POP POP POP JUMP JUMPDEST PUSH1 0x0 PUSH2 0xC1C PUSH1 0x2 DUP4 PUSH2 0x2057 JUMP JUMPDEST DUP1 ISZERO PUSH2 0xC3D JUMPI POP PUSH1 0x1 PUSH2 0xC30 PUSH1 0x2 DUP5 PUSH2 0x206C JUMP JUMPDEST PUSH1 0x2 DUP2 GT ISZERO PUSH2 0xC3B JUMPI INVALID JUMPDEST EQ JUMPDEST SWAP3 SWAP2 POP POP JUMP JUMPDEST PUSH1 0x0 DUP2 DUP2 MSTORE PUSH1 0x7 PUSH1 0x20 MSTORE PUSH1 0x40 SWAP1 KECCAK256 PUSH1 0x1 DUP2 ADD SLOAD DUP3 SWAP2 SWAP1 PUSH1 0x1 PUSH1 0x1 PUSH1 0xA0 SHL SUB AND CALLER EQ DUP1 PUSH2 0xC7B JUMPI POP PUSH1 0x2 DUP2 ADD SLOAD PUSH1 0x1 PUSH1 0x1 PUSH1 0xA0 SHL SUB AND CALLER EQ JUMPDEST PUSH2 0xC97 JUMPI PUSH1 0x40 MLOAD PUSH3 0x461BCD PUSH1 0xE5 SHL DUP2 MSTORE PUSH1 0x4 ADD PUSH2 0x37C SWAP1 PUSH2 0x2999 JUMP JUMPDEST PUSH1 0x1 PUSH2 0xCA2 DUP5 PUSH2 0x10CB JUMP JUMPDEST PUSH1 0x2 DUP2 GT ISZERO PUSH2 0xCAD JUMPI INVALID JUMPDEST EQ PUSH2 0xCCA JUMPI PUSH1 0x40 MLOAD PUSH3 0x461BCD PUSH1 0xE5 SHL DUP2 MSTORE PUSH1 0x4 ADD PUSH2 0x37C SWAP1 PUSH2 0x2F2E JUMP JUMPDEST PUSH1 0x0 DUP4 DUP2 MSTORE PUSH1 0x8 PUSH1 0x20 MSTORE PUSH1 0x40 SWAP1 KECCAK256 PUSH1 0x1 PUSH1 0x9 DUP3 ADD SLOAD PUSH1 0xFF AND PUSH1 0x7 DUP2 GT ISZERO PUSH2 0xCED JUMPI INVALID JUMPDEST EQ DUP1 PUSH2 0xD0B JUMPI POP PUSH1 0x4 PUSH1 0x9 DUP3 ADD SLOAD PUSH1 0xFF AND PUSH1 0x7 DUP2 GT ISZERO PUSH2 0xD09 JUMPI INVALID JUMPDEST EQ JUMPDEST PUSH2 0xD27 JUMPI PUSH1 0x40 MLOAD PUSH3 0x461BCD PUSH1 0xE5 SHL DUP2 MSTORE PUSH1 0x4 ADD PUSH2 0x37C SWAP1 PUSH2 0x2B2E JUMP JUMPDEST TIMESTAMP PUSH1 0xB DUP3 ADD SSTORE PUSH1 0x1 PUSH1 0x9 DUP3 ADD SLOAD PUSH1 0xFF AND PUSH1 0x7 DUP2 GT ISZERO PUSH2 0xD42 JUMPI INVALID JUMPDEST EQ ISZERO PUSH2 0xEE6 JUMPI PUSH1 0x2 DUP2 ADD SLOAD PUSH1 0x1 PUSH1 0x1 PUSH1 0xA0 SHL SUB AND CALLER EQ PUSH2 0xD74 JUMPI PUSH1 0x40 MLOAD PUSH3 0x461BCD PUSH1 0xE5 SHL DUP2 MSTORE PUSH1 0x4 ADD PUSH2 0x37C SWAP1 PUSH2 0x282F JUMP JUMPDEST PUSH1 0x9 DUP2 DUP2 ADD DUP1 SLOAD PUSH1 0xFF NOT SWAP1 DUP2 AND PUSH1 0x4 SWAP1 DUP2 OR DUP4 SSTORE PUSH1 0x0 DUP9 DUP2 MSTORE PUSH1 0x8 PUSH1 0x20 DUP2 SWAP1 MSTORE PUSH1 0x40 SWAP1 SWAP2 KECCAK256 DUP7 SLOAD DUP2 SSTORE PUSH1 0x1 DUP1 DUP9 ADD SLOAD DUP3 DUP3 ADD DUP1 SLOAD PUSH1 0x1 PUSH1 0x1 PUSH1 0xA0 SHL SUB NOT SWAP1 DUP2 AND PUSH1 0x1 PUSH1 0x1 PUSH1 0xA0 SHL SUB SWAP4 DUP5 AND OR SWAP1 SWAP2 SSTORE PUSH1 0x2 DUP1 DUP12 ADD SLOAD SWAP1 DUP6 ADD DUP1 SLOAD DUP4 AND SWAP2 DUP5 AND SWAP2 SWAP1 SWAP2 OR SWAP1 SSTORE PUSH1 0x3 DUP1 DUP12 ADD SLOAD SWAP1 DUP6 ADD SSTORE DUP6 DUP11 ADD SLOAD SWAP6 DUP5 ADD SWAP6 SWAP1 SWAP6 SSTORE PUSH1 0x5 DUP1 DUP11 ADD SLOAD SWAP1 DUP5 ADD SSTORE PUSH1 0x6 DUP1 DUP11 ADD SLOAD SWAP1 DUP5 ADD DUP1 SLOAD SWAP1 SWAP7 AND SWAP2 AND OR SWAP1 SWAP4 SSTORE PUSH1 0x7 DUP1 DUP9 ADD SLOAD DUP2 DUP4 ADD SSTORE DUP3 DUP9 ADD SLOAD SWAP3 DUP3 ADD SWAP3 SWAP1 SWAP3 SSTORE SWAP4 SLOAD SWAP5 DUP5 ADD DUP1 SLOAD DUP8 SWAP7 PUSH1 0xFF AND SWAP5 SWAP2 SWAP4 SWAP2 AND SWAP2 DUP5 SWAP1 DUP2 GT ISZERO PUSH2 0xE3E JUMPI INVALID JUMPDEST MUL OR SWAP1 SSTORE POP PUSH1 0x9 DUP3 DUP2 ADD SLOAD DUP3 DUP3 ADD DUP1 SLOAD PUSH2 0x100 PUSH1 0x1 PUSH1 0xA8 SHL SUB NOT AND PUSH2 0x100 SWAP3 DUP4 SWAP1 DIV PUSH1 0x1 PUSH1 0x1 PUSH1 0xA0 SHL SUB SWAP1 DUP2 AND DUP5 MUL SWAP2 SWAP1 SWAP2 OR SWAP1 SWAP2 SSTORE PUSH1 0xA DUP1 DUP7 ADD SLOAD SWAP1 DUP6 ADD SSTORE PUSH1 0xB SWAP5 DUP6 ADD SLOAD SWAP5 SWAP1 SWAP4 ADD SWAP4 SWAP1 SWAP4 SSTORE DUP4 ADD SLOAD PUSH1 0x2 DUP5 ADD SLOAD PUSH1 0x1 DUP6 ADD SLOAD PUSH1 0x40 MLOAD SWAP5 SWAP1 SWAP3 DIV DUP4 AND SWAP4 SWAP1 DUP4 AND SWAP3 SWAP2 SWAP1 SWAP2 AND SWAP1 PUSH32 0x248BFF50E8BD70639383DE46F68E43C884092FB5A74D6D3377C5ADBE96B7DA36 SWAP1 PUSH2 0xED9 SWAP1 DUP10 SWAP1 PUSH2 0x27E5 JUMP JUMPDEST PUSH1 0x40 MLOAD DUP1 SWAP2 SUB SWAP1 LOG4 PUSH2 0xC09 JUMP JUMPDEST PUSH1 0x1 DUP2 ADD SLOAD PUSH1 0x1 PUSH1 0x1 PUSH1 0xA0 SHL SUB AND CALLER EQ PUSH2 0xF12 JUMPI PUSH1 0x40 MLOAD PUSH3 0x461BCD PUSH1 0xE5 SHL DUP2 MSTORE PUSH1 0x4 ADD PUSH2 0x37C SWAP1 PUSH2 0x2C12 JUMP JUMPDEST PUSH1 0x9 DUP2 DUP2 ADD DUP1 SLOAD PUSH1 0xFF NOT SWAP1 DUP2 AND PUSH1 0x5 SWAP1 DUP2 OR DUP4 SSTORE PUSH1 0x0 DUP9 DUP2 MSTORE PUSH1 0x8 PUSH1 0x20 DUP2 SWAP1 MSTORE PUSH1 0x40 SWAP1 SWAP2 KECCAK256 DUP7 SLOAD DUP2 SSTORE PUSH1 0x1 DUP1 DUP9 ADD SLOAD DUP3 DUP3 ADD DUP1 SLOAD PUSH1 0x1 PUSH1 0x1 PUSH1 0xA0 SHL SUB NOT SWAP1 DUP2 AND PUSH1 0x1 PUSH1 0x1 PUSH1 0xA0 SHL SUB SWAP4 DUP5 AND OR SWAP1 SWAP2 SSTORE PUSH1 0x2 DUP1 DUP12 ADD SLOAD SWAP1 DUP6 ADD DUP1 SLOAD DUP4 AND SWAP2 DUP5 AND SWAP2 SWAP1 SWAP2 OR SWAP1 SSTORE PUSH1 0x3 DUP1 DUP12 ADD SLOAD SWAP1 DUP6 ADD SSTORE PUSH1 0x4 DUP1 DUP12 ADD SLOAD SWAP1 DUP6 ADD SSTORE DUP6 DUP11 ADD SLOAD SWAP6 DUP5 ADD SWAP6 SWAP1 SWAP6 SSTORE PUSH1 0x6 DUP1 DUP11 ADD SLOAD SWAP1 DUP5 ADD DUP1 SLOAD SWAP1 SWAP7 AND SWAP2 AND OR SWAP1 SWAP4 SSTORE PUSH1 0x7 DUP1 DUP9 ADD SLOAD DUP2 DUP4 ADD SSTORE DUP3 DUP9 ADD SLOAD SWAP3 DUP3 ADD SWAP3 SWAP1 SWAP3 SSTORE SWAP4 SLOAD SWAP5 DUP5 ADD DUP1 SLOAD DUP8 SWAP7 PUSH1 0xFF AND SWAP5 SWAP2 SWAP4 SWAP2 AND SWAP2 DUP5 SWAP1 DUP2 GT ISZERO PUSH2 0xFDC JUMPI INVALID JUMPDEST MUL OR SWAP1 SSTORE POP PUSH1 0x9 DUP3 DUP2 ADD SLOAD SWAP1 DUP3 ADD DUP1 SLOAD PUSH2 0x100 PUSH1 0x1 PUSH1 0xA8 SHL SUB NOT AND PUSH2 0x100 SWAP3 DUP4 SWAP1 DIV PUSH1 0x1 PUSH1 0x1 PUSH1 0xA0 SHL SUB SWAP1 DUP2 AND SWAP1 SWAP4 MUL OR SWAP1 SSTORE PUSH1 0xA DUP1 DUP5 ADD SLOAD SWAP1 DUP4 ADD SSTORE PUSH1 0xB SWAP3 DUP4 ADD SLOAD SWAP3 SWAP1 SWAP2 ADD SWAP2 SWAP1 SWAP2 SSTORE PUSH1 0x6 DUP3 ADD SLOAD PUSH1 0x1 DUP4 ADD SLOAD PUSH1 0x8 DUP5 ADD SLOAD PUSH1 0x7 DUP6 ADD SLOAD SWAP3 DUP5 AND SWAP4 PUSH2 0x104F SWAP4 DUP6 SWAP4 SWAP1 SWAP2 AND SWAP2 ADD PUSH2 0x2001 JUMP JUMPDEST PUSH1 0x9 DUP3 ADD SLOAD PUSH1 0x2 DUP4 ADD SLOAD PUSH1 0x1 DUP5 ADD SLOAD PUSH1 0x40 MLOAD PUSH2 0x100 SWAP1 SWAP4 DIV PUSH1 0x1 PUSH1 0x1 PUSH1 0xA0 SHL SUB SWAP1 DUP2 AND SWAP4 SWAP3 DUP2 AND SWAP3 SWAP2 AND SWAP1 PUSH32 0x849E022A14ED8E4F004FCADBDB0DE717A721C487CF6FE68DC8357DA22DA8A9A3 SWAP1 PUSH2 0x10A7 SWAP1 DUP11 SWAP1 PUSH2 0x27E5 JUMP JUMPDEST PUSH1 0x40 MLOAD DUP1 SWAP2 SUB SWAP1 LOG4 POP POP POP POP POP JUMP JUMPDEST PUSH1 0x0 SLOAD PUSH3 0x10000 SWAP1 DIV PUSH1 0x1 PUSH1 0x1 PUSH1 0xA0 SHL SUB AND SWAP1 JUMP JUMPDEST PUSH1 0x0 PUSH2 0x10D8 PUSH1 0x5 DUP4 PUSH2 0x208C JUMP JUMPDEST PUSH2 0x10F4 JUMPI PUSH1 0x40 MLOAD PUSH3 0x461BCD PUSH1 0xE5 SHL DUP2 MSTORE PUSH1 0x4 ADD PUSH2 0x37C SWAP1 PUSH2 0x2A07 JUMP JUMPDEST PUSH2 0xC3D PUSH1 0x5 DUP4 PUSH2 0x2098 JUMP JUMPDEST PUSH2 0x1112 PUSH2 0x207 PUSH1 0xE0 DUP4 ADD PUSH1 0xC0 DUP5 ADD PUSH2 0x260A JUMP JUMPDEST PUSH2 0x112E JUMPI PUSH1 0x40 MLOAD PUSH3 0x461BCD PUSH1 0xE5 SHL DUP2 MSTORE PUSH1 0x4 ADD PUSH2 0x37C SWAP1 PUSH2 0x3031 JUMP JUMPDEST CALLER PUSH1 0x0 SWAP1 DUP2 MSTORE PUSH1 0x4 PUSH1 0x20 MSTORE PUSH1 0x40 SWAP1 KECCAK256 SLOAD DUP2 CALLDATALOAD EQ PUSH2 0x115D JUMPI PUSH1 0x40 MLOAD PUSH3 0x461BCD PUSH1 0xE5 SHL DUP2 MSTORE PUSH1 0x4 ADD PUSH2 0x37C SWAP1 PUSH2 0x2E19 JUMP JUMPDEST CALLER PUSH2 0x116E PUSH1 0x40 DUP4 ADD PUSH1 0x20 DUP5 ADD PUSH2 0x260A JUMP JUMPDEST PUSH1 0x1 PUSH1 0x1 PUSH1 0xA0 SHL SUB AND EQ PUSH2 0x1194 JUMPI PUSH1 0x40 MLOAD PUSH3 0x461BCD PUSH1 0xE5 SHL DUP2 MSTORE PUSH1 0x4 ADD PUSH2 0x37C SWAP1 PUSH2 0x2EDC JUMP JUMPDEST PUSH1 0x0 PUSH2 0x11A6 PUSH1 0x60 DUP4 ADD PUSH1 0x40 DUP5 ADD PUSH2 0x260A JUMP JUMPDEST PUSH1 0x1 PUSH1 0x1 PUSH1 0xA0 SHL SUB AND EQ ISZERO PUSH2 0x11CD JUMPI PUSH1 0x40 MLOAD PUSH3 0x461BCD PUSH1 0xE5 SHL DUP2 MSTORE PUSH1 0x4 ADD PUSH2 0x37C SWAP1 PUSH2 0x2E87 JUMP JUMPDEST PUSH1 0x60 DUP2 ADD CALLDATALOAD PUSH2 0x11EE JUMPI PUSH1 0x40 MLOAD PUSH3 0x461BCD PUSH1 0xE5 SHL DUP2 MSTORE PUSH1 0x4 ADD PUSH2 0x37C SWAP1 PUSH2 0x2CBB JUMP JUMPDEST PUSH1 0x80 DUP2 ADD CALLDATALOAD PUSH2 0x120F JUMPI PUSH1 0x40 MLOAD PUSH3 0x461BCD PUSH1 0xE5 SHL DUP2 MSTORE PUSH1 0x4 ADD PUSH2 0x37C SWAP1 PUSH2 0x28CF JUMP JUMPDEST PUSH1 0x1 SLOAD DUP2 PUSH1 0xA0 ADD CALLDATALOAD LT ISZERO PUSH2 0x1235 JUMPI PUSH1 0x40 MLOAD PUSH3 0x461BCD PUSH1 0xE5 SHL DUP2 MSTORE PUSH1 0x4 ADD PUSH2 0x37C SWAP1 PUSH2 0x2FBD JUMP JUMPDEST PUSH1 0x0 DUP2 PUSH1 0xE0 ADD CALLDATALOAD GT PUSH2 0x1259 JUMPI PUSH1 0x40 MLOAD PUSH3 0x461BCD PUSH1 0xE5 SHL DUP2 MSTORE PUSH1 0x4 ADD PUSH2 0x37C SWAP1 PUSH2 0x2D48 JUMP JUMPDEST PUSH1 0x0 DUP2 PUSH2 0x100 ADD CALLDATALOAD GT PUSH2 0x127E JUMPI PUSH1 0x40 MLOAD PUSH3 0x461BCD PUSH1 0xE5 SHL DUP2 MSTORE PUSH1 0x4 ADD PUSH2 0x37C SWAP1 PUSH2 0x287D JUMP JUMPDEST PUSH2 0x12A8 CALLER ADDRESS PUSH1 0xE0 DUP5 ADD DUP1 CALLDATALOAD SWAP1 PUSH2 0x1297 SWAP1 PUSH1 0xC0 DUP8 ADD PUSH2 0x260A JUMP JUMPDEST PUSH1 0x1 PUSH1 0x1 PUSH1 0xA0 SHL SUB AND SWAP3 SWAP2 SWAP1 PUSH2 0x20A4 JUMP JUMPDEST PUSH1 0x0 PUSH2 0x12B3 DUP3 PUSH2 0x1355 JUMP JUMPDEST SWAP1 POP PUSH2 0x12C2 PUSH1 0x5 DUP3 PUSH1 0x0 PUSH2 0x1F0C JUMP JUMPDEST POP PUSH1 0x0 DUP2 DUP2 MSTORE PUSH1 0x7 PUSH1 0x20 MSTORE PUSH1 0x40 SWAP1 KECCAK256 DUP3 SWAP1 PUSH2 0x12DD DUP3 DUP3 PUSH2 0x3177 JUMP JUMPDEST POP POP CALLER PUSH1 0x0 SWAP1 DUP2 MSTORE PUSH1 0x4 PUSH1 0x20 MSTORE PUSH1 0x40 SWAP1 DUP2 SWAP1 KECCAK256 DUP1 SLOAD PUSH1 0x1 ADD SWAP1 SSTORE PUSH2 0x1307 SWAP1 PUSH1 0x60 DUP5 ADD SWAP1 DUP5 ADD PUSH2 0x260A JUMP JUMPDEST PUSH1 0x1 PUSH1 0x1 PUSH1 0xA0 SHL SUB AND CALLER PUSH1 0x1 PUSH1 0x1 PUSH1 0xA0 SHL SUB AND PUSH32 0x890A69111C6FD5A0ACCB8C2E67BFACE6E9650D699D7646F23DA989C96A4BD63F DUP4 PUSH1 0x40 MLOAD PUSH2 0x1349 SWAP2 SWAP1 PUSH2 0x27E5 JUMP JUMPDEST PUSH1 0x40 MLOAD DUP1 SWAP2 SUB SWAP1 LOG3 POP POP JUMP JUMPDEST PUSH1 0x0 DUP2 CALLDATALOAD PUSH2 0x1369 PUSH1 0x40 DUP5 ADD PUSH1 0x20 DUP6 ADD PUSH2 0x260A JUMP JUMPDEST PUSH2 0x1379 PUSH1 0x60 DUP6 ADD PUSH1 0x40 DUP7 ADD PUSH2 0x260A JUMP JUMPDEST PUSH1 0x60 DUP6 ADD CALLDATALOAD PUSH1 0x80 DUP7 ADD CALLDATALOAD PUSH1 0xA0 DUP8 ADD CALLDATALOAD PUSH2 0x1398 PUSH1 0xE0 DUP10 ADD PUSH1 0xC0 DUP11 ADD PUSH2 0x260A JUMP JUMPDEST DUP9 PUSH1 0xE0 ADD CALLDATALOAD DUP10 PUSH2 0x100 ADD CALLDATALOAD PUSH1 0x40 MLOAD PUSH1 0x20 ADD PUSH2 0x13BB SWAP10 SWAP9 SWAP8 SWAP7 SWAP6 SWAP5 SWAP4 SWAP3 SWAP2 SWAP1 PUSH2 0x30EA JUMP JUMPDEST PUSH1 0x40 MLOAD PUSH1 0x20 DUP2 DUP4 SUB SUB DUP2 MSTORE SWAP1 PUSH1 0x40 MSTORE DUP1 MLOAD SWAP1 PUSH1 0x20 ADD KECCAK256 SWAP1 POP SWAP2 SWAP1 POP JUMP JUMPDEST PUSH1 0x0 PUSH2 0xC3D PUSH1 0x2 DUP4 PUSH2 0x2057 JUMP JUMPDEST PUSH1 0x0 SLOAD PUSH2 0x100 SWAP1 DIV PUSH1 0xFF AND DUP1 PUSH2 0x13FE JUMPI POP PUSH2 0x13FE PUSH2 0x20C5 JUMP JUMPDEST DUP1 PUSH2 0x140C JUMPI POP PUSH1 0x0 SLOAD PUSH1 0xFF AND ISZERO JUMPDEST PUSH2 0x1428 JUMPI PUSH1 0x40 MLOAD PUSH3 0x461BCD PUSH1 0xE5 SHL DUP2 MSTORE PUSH1 0x4 ADD PUSH2 0x37C SWAP1 PUSH2 0x2DCB JUMP JUMPDEST PUSH1 0x0 SLOAD PUSH2 0x100 SWAP1 DIV PUSH1 0xFF AND ISZERO DUP1 ISZERO PUSH2 0x1453 JUMPI PUSH1 0x0 DUP1 SLOAD PUSH1 0xFF NOT PUSH2 0xFF00 NOT SWAP1 SWAP2 AND PUSH2 0x100 OR AND PUSH1 0x1 OR SWAP1 SSTORE JUMPDEST PUSH2 0x145C DUP4 PUSH2 0x20CB JUMP JUMPDEST PUSH2 0x1465 DUP3 PUSH2 0x41E JUMP JUMPDEST DUP1 ISZERO PUSH2 0x1477 JUMPI PUSH1 0x0 DUP1 SLOAD PUSH2 0xFF00 NOT AND SWAP1 SSTORE JUMPDEST POP POP POP JUMP JUMPDEST PUSH2 0x1484 PUSH2 0x2569 JUMP JUMPDEST PUSH1 0x1 PUSH2 0x148F DUP4 PUSH2 0x10CB JUMP JUMPDEST PUSH1 0x2 DUP2 GT ISZERO PUSH2 0x149A JUMPI INVALID JUMPDEST EQ ISZERO PUSH2 0x14B8 JUMPI PUSH1 0x40 MLOAD PUSH3 0x461BCD PUSH1 0xE5 SHL DUP2 MSTORE PUSH1 0x4 ADD PUSH2 0x37C SWAP1 PUSH2 0x2A07 JUMP JUMPDEST POP PUSH1 0x0 SWAP1 DUP2 MSTORE PUSH1 0x7 PUSH1 0x20 DUP2 DUP2 MSTORE PUSH1 0x40 SWAP3 DUP4 SWAP1 KECCAK256 DUP4 MLOAD PUSH2 0x120 DUP2 ADD DUP6 MSTORE DUP2 SLOAD DUP2 MSTORE PUSH1 0x1 DUP3 ADD SLOAD PUSH1 0x1 PUSH1 0x1 PUSH1 0xA0 SHL SUB SWAP1 DUP2 AND SWAP4 DUP3 ADD SWAP4 SWAP1 SWAP4 MSTORE PUSH1 0x2 DUP3 ADD SLOAD DUP4 AND SWAP5 DUP2 ADD SWAP5 SWAP1 SWAP5 MSTORE PUSH1 0x3 DUP2 ADD SLOAD PUSH1 0x60 DUP6 ADD MSTORE PUSH1 0x4 DUP2 ADD SLOAD PUSH1 0x80 DUP6 ADD MSTORE PUSH1 0x5 DUP2 ADD SLOAD PUSH1 0xA0 DUP6 ADD MSTORE PUSH1 0x6 DUP2 ADD SLOAD SWAP1 SWAP2 AND PUSH1 0xC0 DUP5 ADD MSTORE SWAP1 DUP2 ADD SLOAD PUSH1 0xE0 DUP4 ADD MSTORE PUSH1 0x8 ADD SLOAD PUSH2 0x100 DUP3 ADD MSTORE SWAP1 JUMP JUMPDEST PUSH1 0x0 DUP2 DUP2 MSTORE PUSH1 0x7 PUSH1 0x20 MSTORE PUSH1 0x40 SWAP1 KECCAK256 PUSH1 0x1 DUP2 ADD SLOAD DUP3 SWAP2 SWAP1 PUSH1 0x1 PUSH1 0x1 PUSH1 0xA0 SHL SUB AND CALLER EQ PUSH2 0x157B JUMPI PUSH1 0x40 MLOAD PUSH3 0x461BCD PUSH1 0xE5 SHL DUP2 MSTORE PUSH1 0x4 ADD PUSH2 0x37C SWAP1 PUSH2 0x2C12 JUMP JUMPDEST PUSH1 0x1 PUSH2 0x1586 DUP5 PUSH2 0x10CB JUMP JUMPDEST PUSH1 0x2 DUP2 GT ISZERO PUSH2 0x1591 JUMPI INVALID JUMPDEST EQ PUSH2 0x15AE JUMPI PUSH1 0x40 MLOAD PUSH3 0x461BCD PUSH1 0xE5 SHL DUP2 MSTORE PUSH1 0x4 ADD PUSH2 0x37C SWAP1 PUSH2 0x2F2E JUMP JUMPDEST PUSH1 0x0 DUP4 DUP2 MSTORE PUSH1 0x8 PUSH1 0x20 MSTORE PUSH1 0x40 SWAP1 KECCAK256 PUSH1 0x1 DUP2 ADD SLOAD PUSH1 0x1 PUSH1 0x1 PUSH1 0xA0 SHL SUB AND CALLER EQ PUSH2 0x15E8 JUMPI PUSH1 0x40 MLOAD PUSH3 0x461BCD PUSH1 0xE5 SHL DUP2 MSTORE PUSH1 0x4 ADD PUSH2 0x37C SWAP1 PUSH2 0x2C12 JUMP JUMPDEST PUSH1 0x1 PUSH1 0x9 DUP3 ADD SLOAD PUSH1 0xFF AND PUSH1 0x7 DUP2 GT ISZERO PUSH2 0x15FD JUMPI INVALID JUMPDEST EQ PUSH2 0x161A JUMPI PUSH1 0x40 MLOAD PUSH3 0x461BCD PUSH1 0xE5 SHL DUP2 MSTORE PUSH1 0x4 ADD PUSH2 0x37C SWAP1 PUSH2 0x2B2E JUMP JUMPDEST PUSH2 0x1623 DUP5 PUSH2 0x5A7 JUMP JUMPDEST TIMESTAMP LT ISZERO PUSH2 0x1642 JUMPI PUSH1 0x40 MLOAD PUSH3 0x461BCD PUSH1 0xE5 SHL DUP2 MSTORE PUSH1 0x4 ADD PUSH2 0x37C SWAP1 PUSH2 0x2A97 JUMP JUMPDEST PUSH1 0x9 DUP2 DUP2 ADD DUP1 SLOAD PUSH1 0x6 PUSH1 0xFF NOT SWAP2 DUP3 AND DUP2 OR DUP4 SSTORE TIMESTAMP PUSH1 0xB DUP7 ADD SSTORE PUSH1 0x0 DUP9 DUP2 MSTORE PUSH1 0x8 PUSH1 0x20 DUP2 SWAP1 MSTORE PUSH1 0x40 SWAP1 SWAP2 KECCAK256 DUP7 SLOAD DUP2 SSTORE PUSH1 0x1 DUP1 DUP9 ADD SLOAD DUP3 DUP3 ADD DUP1 SLOAD PUSH1 0x1 PUSH1 0x1 PUSH1 0xA0 SHL SUB SWAP3 DUP4 AND PUSH1 0x1 PUSH1 0x1 PUSH1 0xA0 SHL SUB NOT SWAP2 DUP3 AND OR SWAP1 SWAP2 SSTORE PUSH1 0x2 DUP1 DUP12 ADD SLOAD SWAP1 DUP6 ADD DUP1 SLOAD SWAP2 DUP5 AND SWAP2 DUP4 AND SWAP2 SWAP1 SWAP2 OR SWAP1 SSTORE PUSH1 0x3 DUP1 DUP12 ADD SLOAD SWAP1 DUP6 ADD SSTORE PUSH1 0x4 DUP1 DUP12 ADD SLOAD SWAP1 DUP6 ADD SSTORE PUSH1 0x5 DUP1 DUP12 ADD SLOAD SWAP1 DUP6 ADD SSTORE DUP6 DUP11 ADD SLOAD SWAP6 DUP5 ADD DUP1 SLOAD SWAP7 SWAP1 SWAP3 AND SWAP6 AND SWAP5 SWAP1 SWAP5 OR SWAP1 SWAP4 SSTORE PUSH1 0x7 DUP1 DUP9 ADD SLOAD DUP2 DUP4 ADD SSTORE DUP3 DUP9 ADD SLOAD SWAP3 DUP3 ADD SWAP3 SWAP1 SWAP3 SSTORE SWAP4 SLOAD SWAP5 DUP5 ADD DUP1 SLOAD DUP8 SWAP7 PUSH1 0xFF AND SWAP5 SWAP2 SWAP4 SWAP2 AND SWAP2 DUP5 SWAP1 DUP2 GT ISZERO PUSH2 0x1713 JUMPI INVALID JUMPDEST MUL OR SWAP1 SSTORE POP PUSH1 0x9 DUP3 DUP2 ADD SLOAD SWAP1 DUP3 ADD DUP1 SLOAD PUSH2 0x100 PUSH1 0x1 PUSH1 0xA8 SHL SUB NOT AND PUSH2 0x100 SWAP3 DUP4 SWAP1 DIV PUSH1 0x1 PUSH1 0x1 PUSH1 0xA0 SHL SUB SWAP1 DUP2 AND SWAP1 SWAP4 MUL OR SWAP1 SSTORE PUSH1 0xA DUP1 DUP5 ADD SLOAD SWAP1 DUP4 ADD SSTORE PUSH1 0xB SWAP3 DUP4 ADD SLOAD SWAP3 SWAP1 SWAP2 ADD SWAP2 SWAP1 SWAP2 SSTORE PUSH1 0x6 DUP3 ADD SLOAD PUSH1 0x1 DUP4 ADD SLOAD PUSH1 0x8 DUP5 ADD SLOAD PUSH1 0x7 DUP6 ADD SLOAD SWAP3 DUP5 AND SWAP4 PUSH2 0x1786 SWAP4 DUP6 SWAP4 SWAP1 SWAP2 AND SWAP2 ADD PUSH2 0x2001 JUMP JUMPDEST PUSH1 0x9 DUP3 ADD SLOAD PUSH1 0x1 DUP4 ADD SLOAD PUSH1 0x40 MLOAD PUSH2 0x100 SWAP1 SWAP3 DIV PUSH1 0x1 PUSH1 0x1 PUSH1 0xA0 SHL SUB SWAP1 DUP2 AND SWAP3 SWAP2 AND SWAP1 PUSH32 0x25E1ED33538B04C31B25E054018FCA02DA1CB5AEFA51E33EB9F42C606972E77C SWAP1 PUSH2 0x17D5 SWAP1 DUP10 SWAP1 PUSH2 0x27E5 JUMP JUMPDEST PUSH1 0x40 MLOAD DUP1 SWAP2 SUB SWAP1 LOG3 POP POP POP POP POP JUMP JUMPDEST PUSH2 0x17EC PUSH2 0x25B5 JUMP JUMPDEST PUSH1 0x1 PUSH2 0x17F7 DUP4 PUSH2 0x10CB JUMP JUMPDEST PUSH1 0x2 DUP2 GT ISZERO PUSH2 0x1802 JUMPI INVALID JUMPDEST EQ PUSH2 0x181F JUMPI PUSH1 0x40 MLOAD PUSH3 0x461BCD PUSH1 0xE5 SHL DUP2 MSTORE PUSH1 0x4 ADD PUSH2 0x37C SWAP1 PUSH2 0x2A4F JUMP JUMPDEST PUSH1 0x0 DUP3 DUP2 MSTORE PUSH1 0x8 PUSH1 0x20 DUP2 DUP2 MSTORE PUSH1 0x40 SWAP3 DUP4 SWAP1 KECCAK256 DUP4 MLOAD PUSH2 0x1C0 DUP2 ADD SWAP1 SWAP5 MSTORE DUP1 SLOAD PUSH1 0xA0 DUP6 ADD SWAP1 DUP2 MSTORE PUSH1 0x1 DUP3 ADD SLOAD PUSH1 0x1 PUSH1 0x1 PUSH1 0xA0 SHL SUB SWAP1 DUP2 AND PUSH1 0xC0 DUP8 ADD MSTORE PUSH1 0x2 DUP4 ADD SLOAD DUP2 AND PUSH1 0xE0 DUP8 ADD MSTORE PUSH1 0x3 DUP4 ADD SLOAD PUSH2 0x100 DUP8 ADD MSTORE PUSH1 0x4 DUP4 ADD SLOAD PUSH2 0x120 DUP8 ADD MSTORE PUSH1 0x5 DUP4 ADD SLOAD PUSH2 0x140 DUP8 ADD MSTORE PUSH1 0x6 DUP4 ADD SLOAD AND PUSH2 0x160 DUP7 ADD MSTORE PUSH1 0x7 DUP1 DUP4 ADD SLOAD PUSH2 0x180 DUP8 ADD MSTORE SWAP4 DUP3 ADD SLOAD PUSH2 0x1A0 DUP7 ADD MSTORE DUP5 MSTORE PUSH1 0x9 DUP2 ADD SLOAD SWAP1 SWAP3 SWAP2 DUP5 ADD SWAP2 PUSH1 0xFF SWAP1 SWAP2 AND SWAP1 DUP2 GT ISZERO PUSH2 0x18C4 JUMPI INVALID JUMPDEST PUSH1 0x7 DUP2 GT ISZERO PUSH2 0x18CF JUMPI INVALID JUMPDEST DUP2 MSTORE PUSH1 0x9 DUP3 ADD SLOAD PUSH2 0x100 SWAP1 DIV PUSH1 0x1 PUSH1 0x1 PUSH1 0xA0 SHL SUB AND PUSH1 0x20 DUP3 ADD MSTORE PUSH1 0xA DUP3 ADD SLOAD PUSH1 0x40 DUP3 ADD MSTORE PUSH1 0xB SWAP1 SWAP2 ADD SLOAD PUSH1 0x60 SWAP1 SWAP2 ADD MSTORE SWAP3 SWAP2 POP POP JUMP JUMPDEST PUSH1 0x0 PUSH2 0x1910 DUP3 PUSH2 0x10CB JUMP JUMPDEST PUSH1 0x2 DUP2 GT ISZERO PUSH2 0x191B JUMPI INVALID JUMPDEST EQ PUSH2 0x1938 JUMPI PUSH1 0x40 MLOAD PUSH3 0x461BCD PUSH1 0xE5 SHL DUP2 MSTORE PUSH1 0x4 ADD PUSH2 0x37C SWAP1 PUSH2 0x2F2E JUMP JUMPDEST PUSH1 0x0 DUP2 DUP2 MSTORE PUSH1 0x7 PUSH1 0x20 MSTORE PUSH1 0x40 SWAP1 KECCAK256 PUSH1 0x8 DUP2 ADD SLOAD PUSH1 0x6 DUP3 ADD SLOAD PUSH2 0x1969 SWAP2 PUSH1 0x1 PUSH1 0x1 PUSH1 0xA0 SHL SUB SWAP1 SWAP2 AND SWAP1 CALLER SWAP1 ADDRESS SWAP1 PUSH2 0x20A4 JUMP JUMPDEST PUSH2 0x1976 PUSH1 0x5 DUP4 PUSH1 0x1 PUSH2 0x1F0C JUMP JUMPDEST POP PUSH1 0x40 DUP1 MLOAD PUSH2 0x1C0 DUP2 ADD SWAP1 SWAP2 MSTORE DUP2 SLOAD PUSH1 0xA0 DUP3 ADD SWAP1 DUP2 MSTORE PUSH1 0x1 DUP4 ADD SLOAD PUSH1 0x1 PUSH1 0x1 PUSH1 0xA0 SHL SUB SWAP1 DUP2 AND PUSH1 0xC0 DUP5 ADD MSTORE PUSH1 0x2 DUP5 ADD SLOAD DUP2 AND PUSH1 0xE0 DUP5 ADD MSTORE PUSH1 0x3 DUP5 ADD SLOAD PUSH2 0x100 DUP5 ADD MSTORE PUSH1 0x4 DUP5 ADD SLOAD PUSH2 0x120 DUP5 ADD MSTORE PUSH1 0x5 DUP5 ADD SLOAD PUSH2 0x140 DUP5 ADD MSTORE PUSH1 0x6 DUP5 ADD SLOAD AND PUSH2 0x160 DUP4 ADD MSTORE PUSH1 0x7 DUP4 ADD SLOAD PUSH2 0x180 DUP4 ADD MSTORE PUSH1 0x8 DUP4 ADD SLOAD PUSH2 0x1A0 DUP4 ADD MSTORE DUP2 MSTORE PUSH1 0x20 DUP2 ADD PUSH1 0x0 DUP2 MSTORE CALLER PUSH1 0x20 DUP1 DUP4 ADD SWAP2 SWAP1 SWAP2 MSTORE TIMESTAMP PUSH1 0x40 DUP1 DUP5 ADD DUP3 SWAP1 MSTORE PUSH1 0x60 SWAP4 DUP5 ADD SWAP2 SWAP1 SWAP2 MSTORE PUSH1 0x0 DUP7 DUP2 MSTORE PUSH1 0x8 DUP1 DUP5 MSTORE SWAP1 DUP3 SWAP1 KECCAK256 DUP6 MLOAD DUP1 MLOAD DUP3 SSTORE DUP1 DUP6 ADD MLOAD PUSH1 0x1 DUP1 DUP5 ADD DUP1 SLOAD PUSH1 0x1 PUSH1 0x1 PUSH1 0xA0 SHL SUB NOT SWAP1 DUP2 AND PUSH1 0x1 PUSH1 0x1 PUSH1 0xA0 SHL SUB SWAP5 DUP6 AND OR SWAP1 SWAP2 SSTORE SWAP6 DUP4 ADD MLOAD PUSH1 0x2 DUP6 ADD DUP1 SLOAD DUP9 AND SWAP2 DUP5 AND SWAP2 SWAP1 SWAP2 OR SWAP1 SSTORE SWAP7 DUP3 ADD MLOAD PUSH1 0x3 DUP5 ADD SSTORE PUSH1 0x80 DUP3 ADD MLOAD PUSH1 0x4 DUP5 ADD SSTORE PUSH1 0xA0 DUP3 ADD MLOAD PUSH1 0x5 DUP5 ADD SSTORE PUSH1 0xC0 DUP3 ADD MLOAD PUSH1 0x6 DUP5 ADD DUP1 SLOAD SWAP1 SWAP7 AND SWAP2 AND OR SWAP1 SWAP4 SSTORE PUSH1 0xE0 DUP4 ADD MLOAD PUSH1 0x7 DUP1 DUP4 ADD SWAP2 SWAP1 SWAP2 SSTORE PUSH2 0x100 SWAP1 SWAP4 ADD MLOAD SWAP2 DUP2 ADD SWAP2 SWAP1 SWAP2 SSTORE SWAP2 DUP5 ADD MLOAD PUSH1 0x9 DUP4 ADD DUP1 SLOAD SWAP4 SWAP5 SWAP2 SWAP4 SWAP1 SWAP3 PUSH1 0xFF NOT SWAP1 SWAP2 AND SWAP2 SWAP1 DUP5 SWAP1 DUP2 GT ISZERO PUSH2 0x1AD5 JUMPI INVALID JUMPDEST MUL OR SWAP1 SSTORE POP PUSH1 0x40 DUP3 DUP2 ADD MLOAD PUSH1 0x9 DUP4 ADD DUP1 SLOAD PUSH2 0x100 PUSH1 0x1 PUSH1 0xA8 SHL SUB NOT AND PUSH2 0x100 PUSH1 0x1 PUSH1 0x1 PUSH1 0xA0 SHL SUB SWAP4 DUP5 AND MUL OR SWAP1 SSTORE PUSH1 0x60 DUP5 ADD MLOAD PUSH1 0xA DUP5 ADD SSTORE PUSH1 0x80 SWAP1 SWAP4 ADD MLOAD PUSH1 0xB SWAP1 SWAP3 ADD SWAP2 SWAP1 SWAP2 SSTORE PUSH1 0x2 DUP4 ADD SLOAD PUSH1 0x1 DUP5 ADD SLOAD SWAP2 MLOAD CALLER SWAP4 SWAP2 DUP3 AND SWAP3 SWAP1 SWAP2 AND SWAP1 PUSH32 0x1C2363E75F9DD469F4E810D4A15665F965C6811035B4EA3967F975055209B25F SWAP1 PUSH2 0x1B5F SWAP1 DUP8 SWAP1 PUSH2 0x27E5 JUMP JUMPDEST PUSH1 0x40 MLOAD DUP1 SWAP2 SUB SWAP1 LOG4 POP POP JUMP JUMPDEST PUSH1 0x1 PUSH1 0x1 PUSH1 0xA0 SHL SUB AND PUSH1 0x0 SWAP1 DUP2 MSTORE PUSH1 0x4 PUSH1 0x20 MSTORE PUSH1 0x40 SWAP1 KECCAK256 SLOAD SWAP1 JUMP JUMPDEST PUSH1 0x0 SLOAD PUSH3 0x10000 SWAP1 DIV PUSH1 0x1 PUSH1 0x1 PUSH1 0xA0 SHL SUB AND CALLER EQ PUSH2 0x1BB6 JUMPI PUSH1 0x40 MLOAD PUSH3 0x461BCD PUSH1 0xE5 SHL DUP2 MSTORE PUSH1 0x4 ADD PUSH2 0x37C SWAP1 PUSH2 0x2D96 JUMP JUMPDEST PUSH1 0x1 PUSH1 0x1 PUSH1 0xA0 SHL SUB DUP2 AND PUSH2 0x1BDC JUMPI PUSH1 0x40 MLOAD PUSH3 0x461BCD PUSH1 0xE5 SHL DUP2 MSTORE PUSH1 0x4 ADD PUSH2 0x37C SWAP1 PUSH2 0x291C JUMP JUMPDEST PUSH1 0x0 DUP1 SLOAD PUSH1 0x40 MLOAD PUSH1 0x1 PUSH1 0x1 PUSH1 0xA0 SHL SUB DUP1 DUP6 AND SWAP4 PUSH3 0x10000 SWAP1 SWAP4 DIV AND SWAP2 PUSH32 0x8BE0079C531659141344CD1FD0A4F28419497F9722A3DAAFE3B4186F6B6457E0 SWAP2 LOG3 PUSH1 0x0 DUP1 SLOAD PUSH1 0x1 PUSH1 0x1 PUSH1 0xA0 SHL SUB SWAP1 SWAP3 AND PUSH3 0x10000 MUL PUSH3 0x10000 PUSH1 0x1 PUSH1 0xB0 SHL SUB NOT SWAP1 SWAP3 AND SWAP2 SWAP1 SWAP2 OR SWAP1 SSTORE JUMP JUMPDEST PUSH1 0x0 DUP2 DUP2 MSTORE PUSH1 0x7 PUSH1 0x20 MSTORE PUSH1 0x40 SWAP1 KECCAK256 PUSH1 0x1 DUP2 ADD SLOAD DUP3 SWAP2 SWAP1 PUSH1 0x1 PUSH1 0x1 PUSH1 0xA0 SHL SUB AND CALLER EQ PUSH2 0x1C82 JUMPI PUSH1 0x40 MLOAD PUSH3 0x461BCD PUSH1 0xE5 SHL DUP2 MSTORE PUSH1 0x4 ADD PUSH2 0x37C SWAP1 PUSH2 0x2C12 JUMP JUMPDEST PUSH1 0x1 PUSH2 0x1C8D DUP5 PUSH2 0x10CB JUMP JUMPDEST PUSH1 0x2 DUP2 GT ISZERO PUSH2 0x1C98 JUMPI INVALID JUMPDEST EQ PUSH2 0x1CB5 JUMPI PUSH1 0x40 MLOAD PUSH3 0x461BCD PUSH1 0xE5 SHL DUP2 MSTORE PUSH1 0x4 ADD PUSH2 0x37C SWAP1 PUSH2 0x2F2E JUMP JUMPDEST PUSH1 0x0 DUP4 DUP2 MSTORE PUSH1 0x8 PUSH1 0x20 MSTORE PUSH1 0x40 SWAP1 KECCAK256 PUSH1 0x1 DUP2 ADD SLOAD PUSH1 0x1 PUSH1 0x1 PUSH1 0xA0 SHL SUB AND CALLER EQ PUSH2 0x1CEF JUMPI PUSH1 0x40 MLOAD PUSH3 0x461BCD PUSH1 0xE5 SHL DUP2 MSTORE PUSH1 0x4 ADD PUSH2 0x37C SWAP1 PUSH2 0x2BC0 JUMP JUMPDEST PUSH1 0x0 PUSH1 0x9 DUP3 ADD SLOAD PUSH1 0xFF AND PUSH1 0x7 DUP2 GT ISZERO PUSH2 0x1D04 JUMPI INVALID JUMPDEST EQ PUSH2 0x1D21 JUMPI PUSH1 0x40 MLOAD PUSH3 0x461BCD PUSH1 0xE5 SHL DUP2 MSTORE PUSH1 0x4 ADD PUSH2 0x37C SWAP1 PUSH2 0x2B2E JUMP JUMPDEST PUSH1 0x9 DUP2 DUP2 ADD DUP1 SLOAD PUSH1 0x1 PUSH1 0xFF NOT SWAP2 DUP3 AND DUP2 OR DUP4 SSTORE TIMESTAMP PUSH1 0xB DUP7 ADD SSTORE PUSH1 0x0 DUP9 DUP2 MSTORE PUSH1 0x8 PUSH1 0x20 DUP2 SWAP1 MSTORE PUSH1 0x40 SWAP1 SWAP2 KECCAK256 DUP7 SLOAD DUP2 SSTORE DUP3 DUP8 ADD SLOAD DUP2 DUP5 ADD DUP1 SLOAD PUSH1 0x1 PUSH1 0x1 PUSH1 0xA0 SHL SUB SWAP3 DUP4 AND PUSH1 0x1 PUSH1 0x1 PUSH1 0xA0 SHL SUB NOT SWAP2 DUP3 AND OR SWAP1 SWAP2 SSTORE PUSH1 0x2 DUP1 DUP11 ADD SLOAD SWAP1 DUP5 ADD DUP1 SLOAD SWAP2 DUP5 AND SWAP2 DUP4 AND SWAP2 SWAP1 SWAP2 OR SWAP1 SSTORE PUSH1 0x3 DUP1 DUP11 ADD SLOAD SWAP1 DUP5 ADD SSTORE PUSH1 0x4 DUP1 DUP11 ADD SLOAD SWAP1 DUP5 ADD SSTORE PUSH1 0x5 DUP1 DUP11 ADD SLOAD SWAP1 DUP5 ADD SSTORE PUSH1 0x6 DUP1 DUP11 ADD SLOAD SWAP1 DUP5 ADD DUP1 SLOAD SWAP2 SWAP1 SWAP4 AND SWAP2 AND OR SWAP1 SSTORE PUSH1 0x7 DUP1 DUP9 ADD SLOAD DUP2 DUP4 ADD SSTORE DUP3 DUP9 ADD SLOAD SWAP3 DUP3 ADD SWAP3 SWAP1 SWAP3 SSTORE SWAP4 SLOAD SWAP5 DUP5 ADD DUP1 SLOAD DUP8 SWAP7 PUSH1 0xFF AND SWAP5 SWAP2 SWAP4 SWAP2 AND SWAP2 DUP5 SWAP1 DUP2 GT ISZERO PUSH2 0x1DEE JUMPI INVALID JUMPDEST MUL OR SWAP1 SSTORE POP PUSH1 0x9 DUP3 DUP2 ADD SLOAD DUP3 DUP3 ADD DUP1 SLOAD PUSH2 0x100 PUSH1 0x1 PUSH1 0xA8 SHL SUB NOT AND PUSH2 0x100 SWAP3 DUP4 SWAP1 DIV PUSH1 0x1 PUSH1 0x1 PUSH1 0xA0 SHL SUB SWAP1 DUP2 AND DUP5 MUL SWAP2 SWAP1 SWAP2 OR SWAP1 SWAP2 SSTORE PUSH1 0xA DUP1 DUP7 ADD SLOAD SWAP1 DUP6 ADD SSTORE PUSH1 0xB SWAP5 DUP6 ADD SLOAD SWAP5 SWAP1 SWAP4 ADD SWAP4 SWAP1 SWAP4 SSTORE DUP4 ADD SLOAD PUSH1 0x2 DUP5 ADD SLOAD PUSH1 0x40 MLOAD SWAP4 SWAP1 SWAP2 DIV DUP3 AND SWAP3 SWAP2 AND SWAP1 CALLER SWAP1 PUSH32 0xB6ECEF9B285717E6559D31D84010AB1C9043B3C9693F1870C48B1BC825D805F4 SWAP1 PUSH2 0x1E80 SWAP1 DUP10 SWAP1 PUSH2 0x27E5 JUMP JUMPDEST PUSH1 0x40 MLOAD DUP1 SWAP2 SUB SWAP1 LOG4 POP POP POP POP JUMP JUMPDEST PUSH1 0x0 PUSH2 0x1EAF DUP5 PUSH1 0x1 PUSH1 0x1 PUSH1 0xA0 SHL SUB DUP6 AND DUP5 PUSH1 0x2 DUP2 GT ISZERO PUSH2 0x1EAA JUMPI INVALID JUMPDEST PUSH2 0x21A1 JUMP JUMPDEST SWAP1 POP JUMPDEST SWAP4 SWAP3 POP POP POP JUMP JUMPDEST PUSH1 0x0 DUP2 GT PUSH2 0x1ED9 JUMPI PUSH1 0x40 MLOAD PUSH3 0x461BCD PUSH1 0xE5 SHL DUP2 MSTORE PUSH1 0x4 ADD PUSH2 0x37C SWAP1 PUSH2 0x2C5E JUMP JUMPDEST PUSH1 0x1 DUP2 SWAP1 SSTORE PUSH1 0x40 MLOAD DUP2 SWAP1 PUSH32 0xAD78B86F9045C8FEF4CDA954508000D7EE3A9AD763FDC46E4340C60DD6D06B69 SWAP1 PUSH1 0x0 SWAP1 LOG2 POP JUMP JUMPDEST PUSH1 0x0 PUSH2 0x1EAF DUP5 DUP5 DUP5 PUSH1 0x2 DUP2 GT ISZERO PUSH2 0x1EAA JUMPI INVALID JUMPDEST PUSH1 0x0 DUP3 DUP3 ADD DUP4 DUP2 LT ISZERO PUSH2 0x1EB2 JUMPI PUSH1 0x40 MLOAD PUSH3 0x461BCD PUSH1 0xE5 SHL DUP2 MSTORE PUSH1 0x4 ADD PUSH2 0x37C SWAP1 PUSH2 0x2962 JUMP JUMPDEST PUSH1 0x0 PUSH2 0xC3D DUP3 PUSH2 0x2238 JUMP JUMPDEST PUSH1 0x0 DUP1 DUP1 DUP1 PUSH2 0x1F5E DUP7 DUP7 PUSH2 0x223C JUMP JUMPDEST SWAP1 SWAP3 POP SWAP1 POP DUP2 DUP2 PUSH1 0x2 DUP2 GT ISZERO PUSH2 0x1F70 JUMPI INVALID JUMPDEST SWAP4 POP SWAP4 POP POP POP SWAP3 POP SWAP3 SWAP1 POP JUMP JUMPDEST PUSH1 0x0 PUSH2 0x1EB2 DUP4 DUP4 PUSH1 0x40 MLOAD DUP1 PUSH1 0x40 ADD PUSH1 0x40 MSTORE DUP1 PUSH1 0x1A DUP2 MSTORE PUSH1 0x20 ADD PUSH32 0x536166654D6174683A206469766973696F6E206279207A65726F000000000000 DUP2 MSTORE POP PUSH2 0x2298 JUMP JUMPDEST PUSH1 0x0 PUSH2 0x1EB2 DUP4 DUP4 PUSH1 0x40 MLOAD DUP1 PUSH1 0x40 ADD PUSH1 0x40 MSTORE DUP1 PUSH1 0x1E DUP2 MSTORE PUSH1 0x20 ADD PUSH32 0x536166654D6174683A207375627472616374696F6E206F766572666C6F770000 DUP2 MSTORE POP PUSH2 0x22CF JUMP JUMPDEST PUSH2 0x1477 DUP4 PUSH4 0xA9059CBB PUSH1 0xE0 SHL DUP5 DUP5 PUSH1 0x40 MLOAD PUSH1 0x24 ADD PUSH2 0x2020 SWAP3 SWAP2 SWAP1 PUSH2 0x2769 JUMP JUMPDEST PUSH1 0x40 DUP1 MLOAD PUSH1 0x1F NOT DUP2 DUP5 SUB ADD DUP2 MSTORE SWAP2 SWAP1 MSTORE PUSH1 0x20 DUP2 ADD DUP1 MLOAD PUSH1 0x1 PUSH1 0x1 PUSH1 0xE0 SHL SUB AND PUSH1 0x1 PUSH1 0x1 PUSH1 0xE0 SHL SUB NOT SWAP1 SWAP4 AND SWAP3 SWAP1 SWAP3 OR SWAP1 SWAP2 MSTORE PUSH2 0x22FB JUMP JUMPDEST PUSH1 0x0 PUSH2 0x1EB2 DUP4 PUSH1 0x1 PUSH1 0x1 PUSH1 0xA0 SHL SUB DUP5 AND PUSH2 0x238A JUMP JUMPDEST PUSH1 0x0 PUSH2 0x2081 DUP4 PUSH1 0x1 PUSH1 0x1 PUSH1 0xA0 SHL SUB DUP5 AND PUSH2 0x23A2 JUMP JUMPDEST PUSH1 0x2 DUP2 GT ISZERO PUSH2 0x1EB2 JUMPI INVALID JUMPDEST PUSH1 0x0 PUSH2 0x1EB2 DUP4 DUP4 PUSH2 0x238A JUMP JUMPDEST PUSH1 0x0 PUSH2 0x2081 DUP4 DUP4 PUSH2 0x23A2 JUMP JUMPDEST PUSH2 0xC09 DUP5 PUSH4 0x23B872DD PUSH1 0xE0 SHL DUP6 DUP6 DUP6 PUSH1 0x40 MLOAD PUSH1 0x24 ADD PUSH2 0x2020 SWAP4 SWAP3 SWAP2 SWAP1 PUSH2 0x2745 JUMP JUMPDEST ADDRESS EXTCODESIZE ISZERO SWAP1 JUMP JUMPDEST PUSH1 0x0 SLOAD PUSH2 0x100 SWAP1 DIV PUSH1 0xFF AND DUP1 PUSH2 0x20E4 JUMPI POP PUSH2 0x20E4 PUSH2 0x20C5 JUMP JUMPDEST DUP1 PUSH2 0x20F2 JUMPI POP PUSH1 0x0 SLOAD PUSH1 0xFF AND ISZERO JUMPDEST PUSH2 0x210E JUMPI PUSH1 0x40 MLOAD PUSH3 0x461BCD PUSH1 0xE5 SHL DUP2 MSTORE PUSH1 0x4 ADD PUSH2 0x37C SWAP1 PUSH2 0x2DCB JUMP JUMPDEST PUSH1 0x0 SLOAD PUSH2 0x100 SWAP1 DIV PUSH1 0xFF AND ISZERO DUP1 ISZERO PUSH2 0x2139 JUMPI PUSH1 0x0 DUP1 SLOAD PUSH1 0xFF NOT PUSH2 0xFF00 NOT SWAP1 SWAP2 AND PUSH2 0x100 OR AND PUSH1 0x1 OR SWAP1 SSTORE JUMPDEST PUSH1 0x0 DUP1 SLOAD PUSH3 0x10000 PUSH1 0x1 PUSH1 0xB0 SHL SUB NOT AND PUSH3 0x10000 PUSH1 0x1 PUSH1 0x1 PUSH1 0xA0 SHL SUB DUP6 AND SWAP1 DUP2 MUL SWAP2 SWAP1 SWAP2 OR DUP3 SSTORE PUSH1 0x40 MLOAD SWAP1 SWAP2 SWAP1 PUSH32 0x8BE0079C531659141344CD1FD0A4F28419497F9722A3DAAFE3B4186F6B6457E0 SWAP1 DUP3 SWAP1 LOG3 DUP1 ISZERO PUSH2 0x219D JUMPI PUSH1 0x0 DUP1 SLOAD PUSH2 0xFF00 NOT AND SWAP1 SSTORE JUMPDEST POP POP JUMP JUMPDEST PUSH1 0x0 DUP3 DUP2 MSTORE PUSH1 0x1 DUP5 ADD PUSH1 0x20 MSTORE PUSH1 0x40 DUP2 KECCAK256 SLOAD DUP1 PUSH2 0x2206 JUMPI POP POP PUSH1 0x40 DUP1 MLOAD DUP1 DUP3 ADD DUP3 MSTORE DUP4 DUP2 MSTORE PUSH1 0x20 DUP1 DUP3 ADD DUP5 DUP2 MSTORE DUP7 SLOAD PUSH1 0x1 DUP2 DUP2 ADD DUP10 SSTORE PUSH1 0x0 DUP10 DUP2 MSTORE DUP5 DUP2 KECCAK256 SWAP6 MLOAD PUSH1 0x2 SWAP1 SWAP4 MUL SWAP1 SWAP6 ADD SWAP2 DUP3 SSTORE SWAP2 MLOAD SWAP1 DUP3 ADD SSTORE DUP7 SLOAD DUP7 DUP5 MSTORE DUP2 DUP9 ADD SWAP1 SWAP3 MSTORE SWAP3 SWAP1 SWAP2 KECCAK256 SSTORE PUSH2 0x1EB2 JUMP JUMPDEST DUP3 DUP6 PUSH1 0x0 ADD PUSH1 0x1 DUP4 SUB DUP2 SLOAD DUP2 LT PUSH2 0x2219 JUMPI INVALID JUMPDEST SWAP1 PUSH1 0x0 MSTORE PUSH1 0x20 PUSH1 0x0 KECCAK256 SWAP1 PUSH1 0x2 MUL ADD PUSH1 0x1 ADD DUP2 SWAP1 SSTORE POP PUSH1 0x0 SWAP2 POP POP PUSH2 0x1EB2 JUMP JUMPDEST SLOAD SWAP1 JUMP JUMPDEST DUP2 SLOAD PUSH1 0x0 SWAP1 DUP2 SWAP1 DUP4 LT PUSH2 0x2261 JUMPI PUSH1 0x40 MLOAD PUSH3 0x461BCD PUSH1 0xE5 SHL DUP2 MSTORE PUSH1 0x4 ADD PUSH2 0x37C SWAP1 PUSH2 0x2D06 JUMP JUMPDEST PUSH1 0x0 DUP5 PUSH1 0x0 ADD DUP5 DUP2 SLOAD DUP2 LT PUSH2 0x2272 JUMPI INVALID JUMPDEST SWAP1 PUSH1 0x0 MSTORE PUSH1 0x20 PUSH1 0x0 KECCAK256 SWAP1 PUSH1 0x2 MUL ADD SWAP1 POP DUP1 PUSH1 0x0 ADD SLOAD DUP2 PUSH1 0x1 ADD SLOAD SWAP3 POP SWAP3 POP POP SWAP3 POP SWAP3 SWAP1 POP JUMP JUMPDEST PUSH1 0x0 DUP2 DUP4 PUSH2 0x22B9 JUMPI PUSH1 0x40 MLOAD PUSH3 0x461BCD PUSH1 0xE5 SHL DUP2 MSTORE PUSH1 0x4 ADD PUSH2 0x37C SWAP2 SWAP1 PUSH2 0x27FC JUMP JUMPDEST POP PUSH1 0x0 DUP4 DUP6 DUP2 PUSH2 0x22C5 JUMPI INVALID JUMPDEST DIV SWAP6 SWAP5 POP POP POP POP POP JUMP JUMPDEST PUSH1 0x0 DUP2 DUP5 DUP5 GT ISZERO PUSH2 0x22F3 JUMPI PUSH1 0x40 MLOAD PUSH3 0x461BCD PUSH1 0xE5 SHL DUP2 MSTORE PUSH1 0x4 ADD PUSH2 0x37C SWAP2 SWAP1 PUSH2 0x27FC JUMP JUMPDEST POP POP POP SWAP1 SUB SWAP1 JUMP JUMPDEST PUSH1 0x60 PUSH2 0x2350 DUP3 PUSH1 0x40 MLOAD DUP1 PUSH1 0x40 ADD PUSH1 0x40 MSTORE DUP1 PUSH1 0x20 DUP2 MSTORE PUSH1 0x20 ADD PUSH32 0x5361666545524332303A206C6F772D6C6576656C2063616C6C206661696C6564 DUP2 MSTORE POP DUP6 PUSH1 0x1 PUSH1 0x1 PUSH1 0xA0 SHL SUB AND PUSH2 0x23E4 SWAP1 SWAP3 SWAP2 SWAP1 PUSH4 0xFFFFFFFF AND JUMP JUMPDEST DUP1 MLOAD SWAP1 SWAP2 POP ISZERO PUSH2 0x1477 JUMPI DUP1 DUP1 PUSH1 0x20 ADD SWAP1 MLOAD DUP2 ADD SWAP1 PUSH2 0x236E SWAP2 SWAP1 PUSH2 0x264D JUMP JUMPDEST PUSH2 0x1477 JUMPI PUSH1 0x40 MLOAD PUSH3 0x461BCD PUSH1 0xE5 SHL DUP2 MSTORE PUSH1 0x4 ADD PUSH2 0x37C SWAP1 PUSH2 0x2F73 JUMP JUMPDEST PUSH1 0x0 SWAP1 DUP2 MSTORE PUSH1 0x1 SWAP2 SWAP1 SWAP2 ADD PUSH1 0x20 MSTORE PUSH1 0x40 SWAP1 KECCAK256 SLOAD ISZERO ISZERO SWAP1 JUMP JUMPDEST PUSH1 0x0 PUSH2 0x1EB2 DUP4 DUP4 PUSH1 0x40 MLOAD DUP1 PUSH1 0x40 ADD PUSH1 0x40 MSTORE DUP1 PUSH1 0x1E DUP2 MSTORE PUSH1 0x20 ADD PUSH32 0x456E756D657261626C654D61703A206E6F6E6578697374656E74206B65790000 DUP2 MSTORE POP PUSH2 0x23F3 JUMP JUMPDEST PUSH1 0x60 PUSH2 0x1EAF DUP5 DUP5 PUSH1 0x0 DUP6 PUSH2 0x2452 JUMP JUMPDEST PUSH1 0x0 DUP3 DUP2 MSTORE PUSH1 0x1 DUP5 ADD PUSH1 0x20 MSTORE PUSH1 0x40 DUP2 KECCAK256 SLOAD DUP3 DUP2 PUSH2 0x2423 JUMPI PUSH1 0x40 MLOAD PUSH3 0x461BCD PUSH1 0xE5 SHL DUP2 MSTORE PUSH1 0x4 ADD PUSH2 0x37C SWAP2 SWAP1 PUSH2 0x27FC JUMP JUMPDEST POP DUP5 PUSH1 0x0 ADD PUSH1 0x1 DUP3 SUB DUP2 SLOAD DUP2 LT PUSH2 0x2436 JUMPI INVALID JUMPDEST SWAP1 PUSH1 0x0 MSTORE PUSH1 0x20 PUSH1 0x0 KECCAK256 SWAP1 PUSH1 0x2 MUL ADD PUSH1 0x1 ADD SLOAD SWAP2 POP POP SWAP4 SWAP3 POP POP POP JUMP JUMPDEST PUSH1 0x60 DUP3 SELFBALANCE LT ISZERO PUSH2 0x2474 JUMPI PUSH1 0x40 MLOAD PUSH3 0x461BCD PUSH1 0xE5 SHL DUP2 MSTORE PUSH1 0x4 ADD PUSH2 0x37C SWAP1 PUSH2 0x2AE8 JUMP JUMPDEST PUSH2 0x247D DUP6 PUSH2 0x2513 JUMP JUMPDEST PUSH2 0x2499 JUMPI PUSH1 0x40 MLOAD PUSH3 0x461BCD PUSH1 0xE5 SHL DUP2 MSTORE PUSH1 0x4 ADD PUSH2 0x37C SWAP1 PUSH2 0x2E50 JUMP JUMPDEST PUSH1 0x0 PUSH1 0x60 DUP7 PUSH1 0x1 PUSH1 0x1 PUSH1 0xA0 SHL SUB AND DUP6 DUP8 PUSH1 0x40 MLOAD PUSH2 0x24B6 SWAP2 SWAP1 PUSH2 0x2715 JUMP JUMPDEST PUSH1 0x0 PUSH1 0x40 MLOAD DUP1 DUP4 SUB DUP2 DUP6 DUP8 GAS CALL SWAP3 POP POP POP RETURNDATASIZE DUP1 PUSH1 0x0 DUP2 EQ PUSH2 0x24F3 JUMPI PUSH1 0x40 MLOAD SWAP2 POP PUSH1 0x1F NOT PUSH1 0x3F RETURNDATASIZE ADD AND DUP3 ADD PUSH1 0x40 MSTORE RETURNDATASIZE DUP3 MSTORE RETURNDATASIZE PUSH1 0x0 PUSH1 0x20 DUP5 ADD RETURNDATACOPY PUSH2 0x24F8 JUMP JUMPDEST PUSH1 0x60 SWAP2 POP JUMPDEST POP SWAP2 POP SWAP2 POP PUSH2 0x2508 DUP3 DUP3 DUP7 PUSH2 0x2519 JUMP JUMPDEST SWAP8 SWAP7 POP POP POP POP POP POP POP JUMP JUMPDEST EXTCODESIZE ISZERO ISZERO SWAP1 JUMP JUMPDEST PUSH1 0x60 DUP4 ISZERO PUSH2 0x2528 JUMPI POP DUP2 PUSH2 0x1EB2 JUMP JUMPDEST DUP3 MLOAD ISZERO PUSH2 0x2538 JUMPI DUP3 MLOAD DUP1 DUP5 PUSH1 0x20 ADD REVERT JUMPDEST DUP2 PUSH1 0x40 MLOAD PUSH3 0x461BCD PUSH1 0xE5 SHL DUP2 MSTORE PUSH1 0x4 ADD PUSH2 0x37C SWAP2 SWAP1 PUSH2 0x27FC JUMP JUMPDEST PUSH1 0x40 DUP1 MLOAD DUP1 DUP3 ADD SWAP1 SWAP2 MSTORE PUSH1 0x0 DUP1 DUP3 MSTORE PUSH1 0x20 DUP3 ADD MSTORE SWAP1 JUMP JUMPDEST PUSH1 0x40 DUP1 MLOAD PUSH2 0x120 DUP2 ADD DUP3 MSTORE PUSH1 0x0 DUP1 DUP3 MSTORE PUSH1 0x20 DUP3 ADD DUP2 SWAP1 MSTORE SWAP2 DUP2 ADD DUP3 SWAP1 MSTORE PUSH1 0x60 DUP2 ADD DUP3 SWAP1 MSTORE PUSH1 0x80 DUP2 ADD DUP3 SWAP1 MSTORE PUSH1 0xA0 DUP2 ADD DUP3 SWAP1 MSTORE PUSH1 0xC0 DUP2 ADD DUP3 SWAP1 MSTORE PUSH1 0xE0 DUP2 ADD DUP3 SWAP1 MSTORE PUSH2 0x100 DUP2 ADD SWAP2 SWAP1 SWAP2 MSTORE SWAP1 JUMP JUMPDEST PUSH1 0x40 MLOAD DUP1 PUSH1 0xA0 ADD PUSH1 0x40 MSTORE DUP1 PUSH2 0x25C8 PUSH2 0x2569 JUMP JUMPDEST DUP2 MSTORE PUSH1 0x20 ADD PUSH1 0x0 DUP2 MSTORE PUSH1 0x20 ADD PUSH1 0x0 PUSH1 0x1 PUSH1 0x1 PUSH1 0xA0 SHL SUB AND DUP2 MSTORE PUSH1 0x20 ADD PUSH1 0x0 DUP2 MSTORE PUSH1 0x20 ADD PUSH1 0x0 DUP2 MSTORE POP SWAP1 JUMP JUMPDEST DUP1 CALLDATALOAD PUSH1 0x1 PUSH1 0x1 PUSH1 0xA0 SHL SUB DUP2 AND DUP2 EQ PUSH2 0x601 JUMPI PUSH1 0x0 DUP1 REVERT JUMPDEST PUSH1 0x0 PUSH1 0x20 DUP3 DUP5 SUB SLT ISZERO PUSH2 0x261B JUMPI DUP1 DUP2 REVERT JUMPDEST PUSH2 0x1EB2 DUP3 PUSH2 0x25F3 JUMP JUMPDEST PUSH1 0x0 DUP1 PUSH1 0x40 DUP4 DUP6 SUB SLT ISZERO PUSH2 0x2636 JUMPI DUP1 DUP2 REVERT JUMPDEST PUSH2 0x263F DUP4 PUSH2 0x25F3 JUMP JUMPDEST SWAP5 PUSH1 0x20 SWAP4 SWAP1 SWAP4 ADD CALLDATALOAD SWAP4 POP POP POP JUMP JUMPDEST PUSH1 0x0 PUSH1 0x20 DUP3 DUP5 SUB SLT ISZERO PUSH2 0x265E JUMPI DUP1 DUP2 REVERT JUMPDEST DUP2 MLOAD DUP1 ISZERO ISZERO DUP2 EQ PUSH2 0x1EB2 JUMPI DUP2 DUP3 REVERT JUMPDEST PUSH1 0x0 PUSH1 0x20 DUP3 DUP5 SUB SLT ISZERO PUSH2 0x267E JUMPI DUP1 DUP2 REVERT JUMPDEST POP CALLDATALOAD SWAP2 SWAP1 POP JUMP JUMPDEST PUSH1 0x0 PUSH2 0x120 DUP3 DUP5 SUB SLT ISZERO PUSH2 0x2697 JUMPI DUP1 DUP2 REVERT JUMPDEST POP SWAP2 SWAP1 POP JUMP JUMPDEST PUSH1 0x3 DUP2 LT PUSH2 0x26A7 JUMPI INVALID JUMPDEST SWAP1 MSTORE JUMP JUMPDEST DUP1 MLOAD DUP3 MSTORE PUSH1 0x20 DUP2 ADD MLOAD PUSH1 0x1 DUP1 PUSH1 0xA0 SHL SUB DUP1 DUP3 AND PUSH1 0x20 DUP6 ADD MSTORE DUP1 PUSH1 0x40 DUP5 ADD MLOAD AND PUSH1 0x40 DUP6 ADD MSTORE PUSH1 0x60 DUP4 ADD MLOAD PUSH1 0x60 DUP6 ADD MSTORE PUSH1 0x80 DUP4 ADD MLOAD PUSH1 0x80 DUP6 ADD MSTORE PUSH1 0xA0 DUP4 ADD MLOAD PUSH1 0xA0 DUP6 ADD MSTORE DUP1 PUSH1 0xC0 DUP5 ADD MLOAD AND PUSH1 0xC0 DUP6 ADD MSTORE POP POP PUSH1 0xE0 DUP2 ADD MLOAD PUSH1 0xE0 DUP4 ADD MSTORE PUSH2 0x100 DUP1 DUP3 ADD MLOAD DUP2 DUP5 ADD MSTORE POP POP POP JUMP JUMPDEST PUSH1 0x0 DUP3 MLOAD PUSH2 0x2727 DUP2 DUP5 PUSH1 0x20 DUP8 ADD PUSH2 0x3137 JUMP JUMPDEST SWAP2 SWAP1 SWAP2 ADD SWAP3 SWAP2 POP POP JUMP JUMPDEST PUSH1 0x1 PUSH1 0x1 PUSH1 0xA0 SHL SUB SWAP2 SWAP1 SWAP2 AND DUP2 MSTORE PUSH1 0x20 ADD SWAP1 JUMP JUMPDEST PUSH1 0x1 PUSH1 0x1 PUSH1 0xA0 SHL SUB SWAP4 DUP5 AND DUP2 MSTORE SWAP2 SWAP1 SWAP3 AND PUSH1 0x20 DUP3 ADD MSTORE PUSH1 0x40 DUP2 ADD SWAP2 SWAP1 SWAP2 MSTORE PUSH1 0x60 ADD SWAP1 JUMP JUMPDEST PUSH1 0x1 PUSH1 0x1 PUSH1 0xA0 SHL SUB SWAP3 SWAP1 SWAP3 AND DUP3 MSTORE PUSH1 0x20 DUP3 ADD MSTORE PUSH1 0x40 ADD SWAP1 JUMP JUMPDEST PUSH1 0x20 DUP1 DUP3 MSTORE DUP3 MLOAD DUP3 DUP3 ADD DUP2 SWAP1 MSTORE PUSH1 0x0 SWAP2 SWAP1 PUSH1 0x40 SWAP1 DUP2 DUP6 ADD SWAP1 DUP7 DUP5 ADD DUP6 JUMPDEST DUP3 DUP2 LT ISZERO PUSH2 0x27CD JUMPI DUP2 MLOAD DUP1 MLOAD DUP6 MSTORE DUP7 ADD MLOAD PUSH2 0x27BC DUP8 DUP7 ADD DUP3 PUSH2 0x269D JUMP JUMPDEST POP SWAP3 DUP5 ADD SWAP3 SWAP1 DUP6 ADD SWAP1 PUSH1 0x1 ADD PUSH2 0x279F JUMP JUMPDEST POP SWAP2 SWAP8 SWAP7 POP POP POP POP POP POP POP JUMP JUMPDEST SWAP1 ISZERO ISZERO DUP2 MSTORE PUSH1 0x20 ADD SWAP1 JUMP JUMPDEST SWAP1 DUP2 MSTORE PUSH1 0x20 ADD SWAP1 JUMP JUMPDEST PUSH1 0x20 DUP2 ADD PUSH2 0xC3D DUP3 DUP5 PUSH2 0x269D JUMP JUMPDEST PUSH1 0x0 PUSH1 0x20 DUP3 MSTORE DUP3 MLOAD DUP1 PUSH1 0x20 DUP5 ADD MSTORE PUSH2 0x281B DUP2 PUSH1 0x40 DUP6 ADD PUSH1 0x20 DUP8 ADD PUSH2 0x3137 JUMP JUMPDEST PUSH1 0x1F ADD PUSH1 0x1F NOT AND SWAP2 SWAP1 SWAP2 ADD PUSH1 0x40 ADD SWAP3 SWAP2 POP POP JUMP JUMPDEST PUSH1 0x20 DUP1 DUP3 MSTORE PUSH1 0x2E SWAP1 DUP3 ADD MSTORE PUSH32 0x4475636B457870726573733A2063616C6C6572206973206E6F7420746865206F PUSH1 0x40 DUP3 ADD MSTORE PUSH14 0x6666657220616464726573736565 PUSH1 0x90 SHL PUSH1 0x60 DUP3 ADD MSTORE PUSH1 0x80 ADD SWAP1 JUMP JUMPDEST PUSH1 0x20 DUP1 DUP3 MSTORE PUSH1 0x32 SWAP1 DUP3 ADD MSTORE PUSH32 0x4475636B457870726573733A2074686520636F6C6C61746572616C206D757374 PUSH1 0x40 DUP3 ADD MSTORE PUSH18 0x2062652067726561746572207468616E203 PUSH1 0x74 SHL PUSH1 0x60 DUP3 ADD MSTORE PUSH1 0x80 ADD SWAP1 JUMP JUMPDEST PUSH1 0x20 DUP1 DUP3 MSTORE PUSH1 0x2D SWAP1 DUP3 ADD MSTORE PUSH32 0x4475636B457870726573733A207468652064656C697665727920616464726573 PUSH1 0x40 DUP3 ADD MSTORE PUSH13 0x1CC81B5D5CDD081899481CD95D PUSH1 0x9A SHL PUSH1 0x60 DUP3 ADD MSTORE PUSH1 0x80 ADD SWAP1 JUMP JUMPDEST PUSH1 0x20 DUP1 DUP3 MSTORE PUSH1 0x26 SWAP1 DUP3 ADD MSTORE PUSH32 0x4F776E61626C653A206E6577206F776E657220697320746865207A65726F2061 PUSH1 0x40 DUP3 ADD MSTORE PUSH6 0x646472657373 PUSH1 0xD0 SHL PUSH1 0x60 DUP3 ADD MSTORE PUSH1 0x80 ADD SWAP1 JUMP JUMPDEST PUSH1 0x20 DUP1 DUP3 MSTORE PUSH1 0x1B SWAP1 DUP3 ADD MSTORE PUSH32 0x536166654D6174683A206164646974696F6E206F766572666C6F770000000000 PUSH1 0x40 DUP3 ADD MSTORE PUSH1 0x60 ADD SWAP1 JUMP JUMPDEST PUSH1 0x20 DUP1 DUP3 MSTORE PUSH1 0x48 SWAP1 DUP3 ADD MSTORE PUSH32 0x4475636B457870726573733A2063616C6C6572206973206E6569746865722074 PUSH1 0x40 DUP3 ADD MSTORE PUSH32 0x6865206F666665722063726561746F72206E6F7220746865206F666665722061 PUSH1 0x60 DUP3 ADD MSTORE PUSH8 0x6464726573736565 PUSH1 0xC0 SHL PUSH1 0x80 DUP3 ADD MSTORE PUSH1 0xA0 ADD SWAP1 JUMP JUMPDEST PUSH1 0x20 DUP1 DUP3 MSTORE PUSH1 0x28 SWAP1 DUP3 ADD MSTORE PUSH32 0x4475636B457870726573733A206E6F206F6666657220776974682070726F7669 PUSH1 0x40 DUP3 ADD MSTORE PUSH8 0xC8CAC840D0C2E6D PUSH1 0xC3 SHL PUSH1 0x60 DUP3 ADD MSTORE PUSH1 0x80 ADD SWAP1 JUMP JUMPDEST PUSH1 0x20 DUP1 DUP3 MSTORE PUSH1 0x28 SWAP1 DUP3 ADD MSTORE PUSH32 0x4475636B457870726573733A206E6F206F7264657220776974682070726F7669 PUSH1 0x40 DUP3 ADD MSTORE PUSH8 0xC8CAC840D0C2E6D PUSH1 0xC3 SHL PUSH1 0x60 DUP3 ADD MSTORE PUSH1 0x80 ADD SWAP1 JUMP JUMPDEST PUSH1 0x20 DUP1 DUP3 MSTORE PUSH1 0x31 SWAP1 DUP3 ADD MSTORE PUSH32 0x4475636B457870726573733A207468652064656C69766572792074696D652068 PUSH1 0x40 DUP3 ADD MSTORE PUSH17 0x185CC81B9BDD081C185CDCD959081E595D PUSH1 0x7A SHL PUSH1 0x60 DUP3 ADD MSTORE PUSH1 0x80 ADD SWAP1 JUMP JUMPDEST PUSH1 0x20 DUP1 DUP3 MSTORE PUSH1 0x26 SWAP1 DUP3 ADD MSTORE PUSH32 0x416464726573733A20696E73756666696369656E742062616C616E636520666F PUSH1 0x40 DUP3 ADD MSTORE PUSH6 0x1C8818D85B1B PUSH1 0xD2 SHL PUSH1 0x60 DUP3 ADD MSTORE PUSH1 0x80 ADD SWAP1 JUMP JUMPDEST PUSH1 0x20 DUP1 DUP3 MSTORE PUSH1 0x21 SWAP1 DUP3 ADD MSTORE PUSH32 0x4475636B457870726573733A20696E76616C6964206F72646572207374617475 PUSH1 0x40 DUP3 ADD MSTORE PUSH1 0x73 PUSH1 0xF8 SHL PUSH1 0x60 DUP3 ADD MSTORE PUSH1 0x80 ADD SWAP1 JUMP JUMPDEST PUSH1 0x20 DUP1 DUP3 MSTORE PUSH1 0x31 SWAP1 DUP3 ADD MSTORE PUSH32 0x4475636B457870726573733A2074686520455243323020746F6B656E20697320 PUSH1 0x40 DUP3 ADD MSTORE PUSH17 0x185B1C9958591E481CDD5C1C1BDC9D1959 PUSH1 0x7A SHL PUSH1 0x60 DUP3 ADD MSTORE PUSH1 0x80 ADD SWAP1 JUMP JUMPDEST PUSH1 0x20 DUP1 DUP3 MSTORE PUSH1 0x32 SWAP1 DUP3 ADD MSTORE PUSH32 0x4475636B457870726573733A20796F7520617265206E6F742074686520637265 PUSH1 0x40 DUP3 ADD MSTORE PUSH18 0x30BA37B91037B3103A3434B99037B33332B9 PUSH1 0x71 SHL PUSH1 0x60 DUP3 ADD MSTORE PUSH1 0x80 ADD SWAP1 JUMP JUMPDEST PUSH1 0x20 DUP1 DUP3 MSTORE PUSH1 0x2C SWAP1 DUP3 ADD MSTORE PUSH32 0x4475636B457870726573733A2063616C6C6572206973206E6F7420746865206F PUSH1 0x40 DUP3 ADD MSTORE PUSH12 0x333332B91031B932B0BA37B9 PUSH1 0xA1 SHL PUSH1 0x60 DUP3 ADD MSTORE PUSH1 0x80 ADD SWAP1 JUMP JUMPDEST PUSH1 0x20 DUP1 DUP3 MSTORE PUSH1 0x3B SWAP1 DUP3 ADD MSTORE PUSH32 0x4475636B457870726573733A20746865206D696E2065787069726174696F6E20 PUSH1 0x40 DUP3 ADD MSTORE PUSH32 0x74696D65206D7573742062652067726561746572207468616E20300000000000 PUSH1 0x60 DUP3 ADD MSTORE PUSH1 0x80 ADD SWAP1 JUMP JUMPDEST PUSH1 0x20 DUP1 DUP3 MSTORE PUSH1 0x2B SWAP1 DUP3 ADD MSTORE PUSH32 0x4475636B457870726573733A20746865207069636B7570206164647265737320 PUSH1 0x40 DUP3 ADD MSTORE PUSH11 0x1B5D5CDD081899481CD95D PUSH1 0xAA SHL PUSH1 0x60 DUP3 ADD MSTORE PUSH1 0x80 ADD SWAP1 JUMP JUMPDEST PUSH1 0x20 DUP1 DUP3 MSTORE PUSH1 0x22 SWAP1 DUP3 ADD MSTORE PUSH32 0x456E756D657261626C654D61703A20696E646578206F7574206F6620626F756E PUSH1 0x40 DUP3 ADD MSTORE PUSH2 0x6473 PUSH1 0xF0 SHL PUSH1 0x60 DUP3 ADD MSTORE PUSH1 0x80 ADD SWAP1 JUMP JUMPDEST PUSH1 0x20 DUP1 DUP3 MSTORE PUSH1 0x2E SWAP1 DUP3 ADD MSTORE PUSH32 0x4475636B457870726573733A2074686520726577617264206D75737420626520 PUSH1 0x40 DUP3 ADD MSTORE PUSH14 0x67726561746572207468616E203 PUSH1 0x94 SHL PUSH1 0x60 DUP3 ADD MSTORE PUSH1 0x80 ADD SWAP1 JUMP JUMPDEST PUSH1 0x20 DUP1 DUP3 MSTORE DUP2 DUP2 ADD MSTORE PUSH32 0x4F776E61626C653A2063616C6C6572206973206E6F7420746865206F776E6572 PUSH1 0x40 DUP3 ADD MSTORE PUSH1 0x60 ADD SWAP1 JUMP JUMPDEST PUSH1 0x20 DUP1 DUP3 MSTORE PUSH1 0x2E SWAP1 DUP3 ADD MSTORE PUSH32 0x436F6E747261637420696E7374616E63652068617320616C7265616479206265 PUSH1 0x40 DUP3 ADD MSTORE PUSH14 0x195B881A5B9A5D1A585B1A5E9959 PUSH1 0x92 SHL PUSH1 0x60 DUP3 ADD MSTORE PUSH1 0x80 ADD SWAP1 JUMP JUMPDEST PUSH1 0x20 DUP1 DUP3 MSTORE PUSH1 0x1C SWAP1 DUP3 ADD MSTORE PUSH32 0x4475636B457870726573733A20696E636F7272656374206E6F6E636500000000 PUSH1 0x40 DUP3 ADD MSTORE PUSH1 0x60 ADD SWAP1 JUMP JUMPDEST PUSH1 0x20 DUP1 DUP3 MSTORE PUSH1 0x1D SWAP1 DUP3 ADD MSTORE PUSH32 0x416464726573733A2063616C6C20746F206E6F6E2D636F6E7472616374000000 PUSH1 0x40 DUP3 ADD MSTORE PUSH1 0x60 ADD SWAP1 JUMP JUMPDEST PUSH1 0x20 DUP1 DUP3 MSTORE PUSH1 0x35 SWAP1 DUP3 ADD MSTORE PUSH32 0x4475636B457870726573733A2061646472657373656520616464726573732063 PUSH1 0x40 DUP3 ADD MSTORE PUSH21 0x616E6E6F74206265207A65726F2061646472657373 PUSH1 0x58 SHL PUSH1 0x60 DUP3 ADD MSTORE PUSH1 0x80 ADD SWAP1 JUMP JUMPDEST PUSH1 0x20 DUP1 DUP3 MSTORE PUSH1 0x32 SWAP1 DUP3 ADD MSTORE PUSH32 0x4475636B457870726573733A20637573746F6D65722061646472657373206D75 PUSH1 0x40 DUP3 ADD MSTORE PUSH18 0x737420626520796F75722061646472657373 PUSH1 0x70 SHL PUSH1 0x60 DUP3 ADD MSTORE PUSH1 0x80 ADD SWAP1 JUMP JUMPDEST PUSH1 0x20 DUP1 DUP3 MSTORE PUSH1 0x25 SWAP1 DUP3 ADD MSTORE PUSH32 0x4475636B457870726573733A20746865206F6666657220697320756E61766169 PUSH1 0x40 DUP3 ADD MSTORE PUSH5 0x6C61626C65 PUSH1 0xD8 SHL PUSH1 0x60 DUP3 ADD MSTORE PUSH1 0x80 ADD SWAP1 JUMP JUMPDEST PUSH1 0x20 DUP1 DUP3 MSTORE PUSH1 0x2A SWAP1 DUP3 ADD MSTORE PUSH32 0x5361666545524332303A204552433230206F7065726174696F6E20646964206E PUSH1 0x40 DUP3 ADD MSTORE PUSH10 0x1BDD081CDD58D8D95959 PUSH1 0xB2 SHL PUSH1 0x60 DUP3 ADD MSTORE PUSH1 0x80 ADD SWAP1 JUMP JUMPDEST PUSH1 0x20 DUP1 DUP3 MSTORE PUSH1 0x4E SWAP1 DUP3 ADD MSTORE PUSH32 0x4475636B457870726573733A207468652064656C69766572792074696D652063 PUSH1 0x40 DUP3 ADD MSTORE PUSH32 0x616E6E6F74206265206C6573736572207468616E20746865206D696E696D616C PUSH1 0x60 DUP3 ADD MSTORE PUSH14 0x2064656C69766572792074696D65 PUSH1 0x90 SHL PUSH1 0x80 DUP3 ADD MSTORE PUSH1 0xA0 ADD SWAP1 JUMP JUMPDEST PUSH1 0x20 DUP1 DUP3 MSTORE PUSH1 0x32 SWAP1 DUP3 ADD MSTORE PUSH32 0x4475636B457870726573733A20746865204552433230206C6F616E20746F6B65 PUSH1 0x40 DUP3 ADD MSTORE PUSH18 0x1B881A5CC81B9BDD081CDD5C1C1BDC9D1959 PUSH1 0x72 SHL PUSH1 0x60 DUP3 ADD MSTORE PUSH1 0x80 ADD SWAP1 JUMP JUMPDEST PUSH2 0x120 DUP2 ADD PUSH2 0xC3D DUP3 DUP5 PUSH2 0x26AB JUMP JUMPDEST PUSH1 0x0 PUSH2 0x1A0 DUP3 ADD SWAP1 POP PUSH2 0x30A6 DUP3 DUP5 MLOAD PUSH2 0x26AB JUMP JUMPDEST PUSH1 0x20 DUP4 ADD MLOAD PUSH1 0x8 DUP2 LT PUSH2 0x30B5 JUMPI INVALID JUMPDEST PUSH2 0x120 DUP4 ADD MSTORE PUSH1 0x40 DUP4 ADD MLOAD PUSH1 0x1 PUSH1 0x1 PUSH1 0xA0 SHL SUB AND PUSH2 0x140 DUP4 ADD MSTORE PUSH1 0x60 DUP4 ADD MLOAD PUSH2 0x160 DUP4 ADD MSTORE PUSH1 0x80 SWAP1 SWAP3 ADD MLOAD PUSH2 0x180 SWAP1 SWAP2 ADD MSTORE SWAP1 JUMP JUMPDEST SWAP9 DUP10 MSTORE PUSH1 0x1 PUSH1 0x1 PUSH1 0xA0 SHL SUB SWAP8 DUP9 AND PUSH1 0x20 DUP11 ADD MSTORE SWAP6 DUP8 AND PUSH1 0x40 DUP10 ADD MSTORE PUSH1 0x60 DUP9 ADD SWAP5 SWAP1 SWAP5 MSTORE PUSH1 0x80 DUP8 ADD SWAP3 SWAP1 SWAP3 MSTORE PUSH1 0xA0 DUP7 ADD MSTORE SWAP1 SWAP3 AND PUSH1 0xC0 DUP5 ADD MSTORE PUSH1 0xE0 DUP4 ADD SWAP2 SWAP1 SWAP2 MSTORE PUSH2 0x100 DUP3 ADD MSTORE PUSH2 0x120 ADD SWAP1 JUMP JUMPDEST PUSH1 0x0 JUMPDEST DUP4 DUP2 LT ISZERO PUSH2 0x3152 JUMPI DUP2 DUP2 ADD MLOAD DUP4 DUP3 ADD MSTORE PUSH1 0x20 ADD PUSH2 0x313A JUMP JUMPDEST DUP4 DUP2 GT ISZERO PUSH2 0xC09 JUMPI POP POP PUSH1 0x0 SWAP2 ADD MSTORE JUMP JUMPDEST DUP1 CALLDATALOAD PUSH1 0x1 PUSH1 0x1 PUSH1 0xA0 SHL SUB DUP2 AND DUP2 EQ PUSH2 0x601 JUMPI INVALID JUMPDEST PUSH1 0x0 PUSH2 0x3185 DUP4 CALLDATALOAD DUP3 DUP5 PUSH2 0x3251 JUMP JUMPDEST PUSH2 0x319E PUSH2 0x3194 PUSH1 0x20 DUP6 ADD PUSH2 0x3163 JUMP JUMPDEST DUP3 PUSH1 0x1 DUP6 ADD PUSH2 0x322B JUMP JUMPDEST PUSH2 0x31B7 PUSH2 0x31AD PUSH1 0x40 DUP6 ADD PUSH2 0x3163 JUMP JUMPDEST DUP3 PUSH1 0x2 DUP6 ADD PUSH2 0x322B JUMP JUMPDEST PUSH2 0x31C9 PUSH1 0x60 DUP5 ADD CALLDATALOAD DUP3 PUSH1 0x3 DUP6 ADD PUSH2 0x3251 JUMP JUMPDEST PUSH2 0x31DB PUSH1 0x80 DUP5 ADD CALLDATALOAD DUP3 PUSH1 0x4 DUP6 ADD PUSH2 0x3251 JUMP JUMPDEST PUSH2 0x31ED PUSH1 0xA0 DUP5 ADD CALLDATALOAD DUP3 PUSH1 0x5 DUP6 ADD PUSH2 0x3251 JUMP JUMPDEST PUSH2 0x3206 PUSH2 0x31FC PUSH1 0xC0 DUP6 ADD PUSH2 0x3163 JUMP JUMPDEST DUP3 PUSH1 0x6 DUP6 ADD PUSH2 0x322B JUMP JUMPDEST PUSH2 0x3218 PUSH1 0xE0 DUP5 ADD CALLDATALOAD DUP3 PUSH1 0x7 DUP6 ADD PUSH2 0x3251 JUMP JUMPDEST PUSH2 0x1477 PUSH2 0x100 DUP5 ADD CALLDATALOAD DUP3 PUSH1 0x8 DUP6 ADD PUSH2 0x3251 JUMP JUMPDEST DUP1 SLOAD PUSH1 0x8 SWAP3 SWAP1 SWAP3 MUL SWAP3 DUP4 SHL PUSH1 0x1 PUSH1 0x1 PUSH1 0xA0 SHL SUB SWAP1 SWAP4 SHL SWAP3 DUP4 AND SWAP3 NOT SWAP1 SWAP2 AND SWAP2 SWAP1 SWAP2 OR SWAP1 SSTORE JUMP JUMPDEST DUP1 SLOAD PUSH1 0x8 DUP4 MUL PUSH1 0x0 NOT DUP2 SHL DUP1 DUP7 DUP4 SHL AND DUP2 NOT DUP5 AND OR DUP5 SSTORE POP POP POP POP POP POP JUMP INVALID LOG2 PUSH5 0x6970667358 0x22 SLT KECCAK256 ORIGIN 0xC1 DUP11 0xEF ADDMOD PUSH18 0x99E9B611671FBE19D59E3CE4DE518C4C0A91 SWAP3 DUP7 EXTCODECOPY PUSH17 0x2950093464736F6C634300070300330000 "
    }
  }
}